{
  "_format": "hh-sol-artifact-1",
  "contractName": "GachaPaymentExtension",
  "sourceName": "contracts/GachaPaymentExtension.sol",
  "abi": [
    {
      "inputs": [
        {
          "internalType": "address",
          "name": "gachaPon_",
          "type": "address"
        },
        {
          "internalType": "address",
          "name": "_commissionReceiver",
          "type": "address"
        },
        {
          "internalType": "uint256",
          "name": "_commissionPercentage",
          "type": "uint256"
        }
      ],
      "stateMutability": "nonpayable",
      "type": "constructor"
    },
    {
      "anonymous": false,
      "inputs": [
        {
          "indexed": true,
          "internalType": "address",
          "name": "previousOwner",
          "type": "address"
        },
        {
          "indexed": true,
          "internalType": "address",
          "name": "newOwner",
          "type": "address"
        }
      ],
      "name": "OwnershipTransferred",
      "type": "event"
    },
    {
      "anonymous": false,
      "inputs": [
        {
          "indexed": false,
          "internalType": "address",
          "name": "tokenContract",
          "type": "address"
        },
        {
          "indexed": false,
          "internalType": "uint256",
          "name": "amount",
          "type": "uint256"
        }
      ],
      "name": "TokenWithdrawn",
      "type": "event"
    },
    {
      "inputs": [],
      "name": "checkRegisteredGachaPonId",
      "outputs": [
        {
          "internalType": "uint256",
          "name": "tokenId",
          "type": "uint256"
        }
      ],
      "stateMutability": "view",
      "type": "function"
    },
    {
      "inputs": [],
      "name": "commissionPercentage",
      "outputs": [
        {
          "internalType": "uint256",
          "name": "",
          "type": "uint256"
        }
      ],
      "stateMutability": "view",
      "type": "function"
    },
    {
      "inputs": [],
      "name": "owner",
      "outputs": [
        {
          "internalType": "address",
          "name": "",
          "type": "address"
        }
      ],
      "stateMutability": "view",
      "type": "function"
    },
    {
      "inputs": [
        {
          "internalType": "string",
          "name": "paymentId",
          "type": "string"
        }
      ],
      "name": "purchaseInfo",
      "outputs": [
        {
          "internalType": "string",
          "name": "info",
          "type": "string"
        }
      ],
      "stateMutability": "view",
      "type": "function"
    },
    {
      "inputs": [
        {
          "internalType": "address",
          "name": "receiveToken",
          "type": "address"
        },
        {
          "internalType": "uint256",
          "name": "amount",
          "type": "uint256"
        },
        {
          "internalType": "string",
          "name": "paymentId",
          "type": "string"
        },
        {
          "internalType": "string",
          "name": "optional",
          "type": "string"
        },
        {
          "internalType": "bytes",
          "name": "",
          "type": "bytes"
        }
      ],
      "name": "receivePayment",
      "outputs": [],
      "stateMutability": "payable",
      "type": "function"
    },
    {
      "inputs": [],
      "name": "renounceOwnership",
      "outputs": [],
      "stateMutability": "nonpayable",
      "type": "function"
    },
    {
      "inputs": [],
      "name": "supportSlashExtensionInterface",
      "outputs": [
        {
          "internalType": "uint8",
          "name": "",
          "type": "uint8"
        }
      ],
      "stateMutability": "pure",
      "type": "function"
    },
    {
      "inputs": [
        {
          "internalType": "address",
          "name": "newOwner",
          "type": "address"
        }
      ],
      "name": "transferOwnership",
      "outputs": [],
      "stateMutability": "nonpayable",
      "type": "function"
    },
    {
      "inputs": [
        {
          "internalType": "uint256",
          "name": "tokenId",
          "type": "uint256"
        }
      ],
      "name": "updateRegisteredGachaPonId",
      "outputs": [],
      "stateMutability": "nonpayable",
      "type": "function"
    },
    {
      "inputs": [
        {
          "internalType": "address",
          "name": "tokenContract",
          "type": "address"
        }
      ],
      "name": "withdrawToken",
      "outputs": [],
      "stateMutability": "nonpayable",
      "type": "function"
    }
  ],
  "bytecode": "0x60806040523480156200001157600080fd5b50604051620017d3380380620017d38339810160408190526200003491620000e5565b6200003f3362000078565b600180546001600160a01b039485166001600160a01b031991821617909155600380549390941692169190911790915560045562000126565b600080546001600160a01b038381166001600160a01b0319831681178455604051919092169283917f8be0079c531659141344cd1fd0a4f28419497f9722a3daafe3b4186f6b6457e09190a35050565b80516001600160a01b0381168114620000e057600080fd5b919050565b600080600060608486031215620000fb57600080fd5b6200010684620000c8565b92506200011660208501620000c8565b9150604084015190509250925092565b61169d80620001366000396000f3fe6080604052600436106100915760003560e01c8063894760691161005957806389476069146101315780638ab43142146101515780638da5cb5b1461016d578063d575fe6414610195578063f2fde38b146101ab57600080fd5b8063012a663114610096578063104debba146100ab57806332ff0d86146100cf5780633ab4dcd5146100ef578063715018a61461011c575b600080fd5b6100a96100a43660046110aa565b6101cb565b005b3480156100b757600080fd5b506002545b6040519081526020015b60405180910390f35b3480156100db57600080fd5b506100a96100ea366004611160565b610486565b3480156100fb57600080fd5b5061010f61010a3660046111c0565b6104de565b6040516100c69190611279565b34801561012857600080fd5b506100a9610583565b34801561013d57600080fd5b506100a961014c3660046112ac565b610597565b34801561015d57600080fd5b50604051600281526020016100c6565b34801561017957600080fd5b506000546040516001600160a01b0390911681526020016100c6565b3480156101a157600080fd5b506100bc60045481565b3480156101b757600080fd5b506100a96101c63660046112ac565b610676565b6000600254116102225760405162461bcd60e51b815260206004820152601b60248201527f6761636861206973206e6f74207265676973746572656420796574000000000060448201526064015b60405180910390fd5b600154600254604051638da7d0b560e01b815260048101919091526000916001600160a01b031690638da7d0b590602401602060405180830381865afa158015610270573d6000803e3d6000fd5b505050506040513d601f19601f8201168201806040525081019061029491906112c9565b116102d75760405162461bcd60e51b81526020600482015260136024820152727468657265206973206e6f2063617073756c6560681b6044820152606401610219565b60015460025460405163ae29f73160e01b815260048101919091526000916001600160a01b03169063ae29f73190602401602060405180830381865afa158015610325573d6000803e3d6000fd5b505050506040513d601f19601f8201168201806040525081019061034991906112c9565b61035690620f42406112f8565b90508088101561039e5760405162461bcd60e51b81526020600482015260136024820152721a5b9cdd59999a58da595b9d08185b5bdd5b9d606a1b6044820152606401610219565b60006103b66103af8a6004546106ef565b6064610704565b6003549091506103d5906001600160a01b038c81169133911684610710565b610407336103eb6000546001600160a01b031690565b6103f5848d61130f565b6001600160a01b038e16929190610710565b61047a88888080601f01602080910402602001604051908101604052809392919081815260200183838082843760009201919091525050604080516020601f8c018190048102820181019092528a815292508a91508990819084018382808284376000920191909152506107fb92505050565b50505050505050505050565b6001546001600160a01b031633146104d95760405162461bcd60e51b81526020600482015260166024820152753237903737ba103430bb32903832b936b4b9b9b4b7b760511b6044820152606401610219565b600255565b80516020818301810180516005825292820191909301209152805461050290611322565b80601f016020809104026020016040519081016040528092919081815260200182805461052e90611322565b801561057b5780601f106105505761010080835404028352916020019161057b565b820191906000526020600020905b81548152906001019060200180831161055e57829003601f168201915b505050505081565b61058b610a66565b6105956000610ac0565b565b61059f610a66565b60006105b46001600160a01b03831630610b10565b116105f35760405162461bcd60e51b815260206004820152600f60248201526e62616c616e6365206973207a65726f60881b6044820152606401610219565b61061b3361060a6001600160a01b03841630610b10565b6001600160a01b0384169190610ba2565b507fa2bd9fcfcdba69f52bcd9a520846ad4bd685b187483f53efc42d035b2ddebff0816106516001600160a01b03821630610b10565b604080516001600160a01b03909316835260208301919091520160405180910390a150565b61067e610a66565b6001600160a01b0381166106e35760405162461bcd60e51b815260206004820152602660248201527f4f776e61626c653a206e6577206f776e657220697320746865207a65726f206160448201526564647265737360d01b6064820152608401610219565b6106ec81610ac0565b50565b60006106fb82846112f8565b90505b92915050565b60006106fb8284611372565b80156107f55761071f84610bf8565b156107e0576001600160a01b0383163314801561073c5750803410155b61079c5760405162461bcd60e51b815260206004820152602b60248201527f57726f6e6720757365616765206f66204554482e756e6976657273616c54726160448201526a6e7366657246726f6d282960a81b6064820152608401610219565b6001600160a01b03821630146107bf576107bf6001600160a01b03831682610c31565b803411156107db576107db6107d4823461130f565b3390610c31565b6107f5565b6107f56001600160a01b038516848484610d4f565b50505050565b600042438460405160200161081293929190611386565b60408051808303601f190181529082905280516020909101206001546002546350c2fc4760e01b845260048401529092506000916001600160a01b03909116906350c2fc4790602401600060405180830381865afa158015610878573d6000803e3d6000fd5b505050506040513d6000823e601f3d908101601f191682016040526108a091908101906113d7565b90506000818251846108b2919061146b565b815181106108c2576108c261147f565b6020908102919091010151600154600254604051634dd891ff60e01b815260048101919091526001600160a01b03808416602483015292935060009290911690634dd891ff90604401600060405180830381865afa158015610928573d6000803e3d6000fd5b505050506040513d6000823e601f3d908101601f191682016040526109509190810190611495565b9050600081825186610962919061146b565b815181106109725761097261147f565b6020908102919091010151600154600254604051631d98f3c560e01b815260048101919091523260248201526001600160a01b03868116604483015260648201849052929350911690631d98f3c590608401600060405180830381600087803b1580156109de57600080fd5b505af11580156109f2573d6000803e3d6000fd5b50506040516bffffffffffffffffffffffff19606087901b166020820152603481018490526054019150610a239050565b604051602081830303815290604052600588604051610a42919061151b565b90815260200160405180910390209081610a5c9190611585565b5050505050505050565b6000546001600160a01b031633146105955760405162461bcd60e51b815260206004820181905260248201527f4f776e61626c653a2063616c6c6572206973206e6f7420746865206f776e65726044820152606401610219565b600080546001600160a01b038381166001600160a01b0319831681178455604051919092169283917f8be0079c531659141344cd1fd0a4f28419497f9722a3daafe3b4186f6b6457e09190a35050565b6000610b1b83610bf8565b15610b3157506001600160a01b038116316106fe565b6040516370a0823160e01b81526001600160a01b0383811660048301528416906370a0823190602401602060405180830381865afa158015610b77573d6000803e3d6000fd5b505050506040513d601f19601f82011682018060405250810190610b9b91906112c9565b90506106fe565b600081600003610bb457506001610bf1565b610bbd84610bf8565b15610bdd57610bd56001600160a01b03841683610c31565b506001610bf1565b610bd56001600160a01b0385168484610dba565b9392505050565b60006001600160a01b03821615806106fe57506001600160a01b03821673eeeeeeeeeeeeeeeeeeeeeeeeeeeeeeeeeeeeeeee1492915050565b80471015610c815760405162461bcd60e51b815260206004820152601d60248201527f416464726573733a20696e73756666696369656e742062616c616e63650000006044820152606401610219565b6000826001600160a01b03168260405160006040518083038185875af1925050503d8060008114610cce576040519150601f19603f3d011682016040523d82523d6000602084013e610cd3565b606091505b5050905080610d4a5760405162461bcd60e51b815260206004820152603a60248201527f416464726573733a20756e61626c6520746f2073656e642076616c75652c207260448201527f6563697069656e74206d617920686176652072657665727465640000000000006064820152608401610219565b505050565b6040516001600160a01b03808516602483015283166044820152606481018290526107f59085906323b872dd60e01b906084015b60408051601f198184030181529190526020810180516001600160e01b03166001600160e01b031990931692909217909152610dea565b6040516001600160a01b038316602482015260448101829052610d4a90849063a9059cbb60e01b90606401610d83565b6000610e3f826040518060400160405280602081526020017f5361666545524332303a206c6f772d6c6576656c2063616c6c206661696c6564815250856001600160a01b0316610ebc9092919063ffffffff16565b805190915015610d4a5780806020019051810190610e5d9190611645565b610d4a5760405162461bcd60e51b815260206004820152602a60248201527f5361666545524332303a204552433230206f7065726174696f6e20646964206e6044820152691bdd081cdd58d8d9595960b21b6064820152608401610219565b6060610ecb8484600085610ed3565b949350505050565b606082471015610f345760405162461bcd60e51b815260206004820152602660248201527f416464726573733a20696e73756666696369656e742062616c616e636520666f6044820152651c8818d85b1b60d21b6064820152608401610219565b600080866001600160a01b03168587604051610f50919061151b565b60006040518083038185875af1925050503d8060008114610f8d576040519150601f19603f3d011682016040523d82523d6000602084013e610f92565b606091505b5091509150610fa387838387610fae565b979650505050505050565b6060831561101d578251600003611016576001600160a01b0385163b6110165760405162461bcd60e51b815260206004820152601d60248201527f416464726573733a2063616c6c20746f206e6f6e2d636f6e74726163740000006044820152606401610219565b5081610ecb565b610ecb83838151156110325781518083602001fd5b8060405162461bcd60e51b81526004016102199190611279565b6001600160a01b03811681146106ec57600080fd5b60008083601f84011261107357600080fd5b50813567ffffffffffffffff81111561108b57600080fd5b6020830191508360208285010111156110a357600080fd5b9250929050565b60008060008060008060008060a0898b0312156110c657600080fd5b88356110d18161104c565b975060208901359650604089013567ffffffffffffffff808211156110f557600080fd5b6111018c838d01611061565b909850965060608b013591508082111561111a57600080fd5b6111268c838d01611061565b909650945060808b013591508082111561113f57600080fd5b5061114c8b828c01611061565b999c989b5096995094979396929594505050565b60006020828403121561117257600080fd5b5035919050565b634e487b7160e01b600052604160045260246000fd5b604051601f8201601f1916810167ffffffffffffffff811182821017156111b8576111b8611179565b604052919050565b600060208083850312156111d357600080fd5b823567ffffffffffffffff808211156111eb57600080fd5b818501915085601f8301126111ff57600080fd5b81358181111561121157611211611179565b611223601f8201601f1916850161118f565b9150808252868482850101111561123957600080fd5b8084840185840137600090820190930192909252509392505050565b60005b83811015611270578181015183820152602001611258565b50506000910152565b6020815260008251806020840152611298816040850160208701611255565b601f01601f19169190910160400192915050565b6000602082840312156112be57600080fd5b8135610bf18161104c565b6000602082840312156112db57600080fd5b5051919050565b634e487b7160e01b600052601160045260246000fd5b80820281158282048414176106fe576106fe6112e2565b818103818111156106fe576106fe6112e2565b600181811c9082168061133657607f821691505b60208210810361135657634e487b7160e01b600052602260045260246000fd5b50919050565b634e487b7160e01b600052601260045260246000fd5b6000826113815761138161135c565b500490565b838152826020820152600082516113a4816040850160208701611255565b91909101604001949350505050565b600067ffffffffffffffff8211156113cd576113cd611179565b5060051b60200190565b600060208083850312156113ea57600080fd5b825167ffffffffffffffff81111561140157600080fd5b8301601f8101851361141257600080fd5b8051611425611420826113b3565b61118f565b81815260059190911b8201830190838101908783111561144457600080fd5b928401925b82841015610fa357835161145c8161104c565b82529284019290840190611449565b60008261147a5761147a61135c565b500690565b634e487b7160e01b600052603260045260246000fd5b600060208083850312156114a857600080fd5b825167ffffffffffffffff8111156114bf57600080fd5b8301601f810185136114d057600080fd5b80516114de611420826113b3565b81815260059190911b820183019083810190878311156114fd57600080fd5b928401925b82841015610fa357835182529284019290840190611502565b6000825161152d818460208701611255565b9190910192915050565b601f821115610d4a57600081815260208120601f850160051c8101602086101561155e5750805b601f850160051c820191505b8181101561157d5782815560010161156a565b505050505050565b815167ffffffffffffffff81111561159f5761159f611179565b6115b3816115ad8454611322565b84611537565b602080601f8311600181146115e857600084156115d05750858301515b600019600386901b1c1916600185901b17855561157d565b600085815260208120601f198616915b82811015611617578886015182559484019460019091019084016115f8565b50858210156116355787850151600019600388901b60f8161c191681555b5050505050600190811b01905550565b60006020828403121561165757600080fd5b81518015158114610bf157600080fdfea26469706673582212204ed42400dafa059847e35027c82930a05d872b296cf5e9213ef3bb03c66a9fdb64736f6c63430008120033",
  "linkReferences": {},
  "deployedLinkReferences": {}
}