{
  "_format": "hh-sol-artifact-1",
  "contractName": "GachaMintExtension",
  "sourceName": "contracts/GachaMintExtension.sol",
  "abi": [
    {
      "inputs": [
        {
          "internalType": "address",
          "name": "gachaPon_",
          "type": "address"
        },
        {
          "internalType": "uint256",
          "name": "fee_",
          "type": "uint256"
        }
      ],
      "stateMutability": "nonpayable",
      "type": "constructor"
    },
    {
      "anonymous": false,
      "inputs": [
        {
          "indexed": true,
          "internalType": "address",
          "name": "previousOwner",
          "type": "address"
        },
        {
          "indexed": true,
          "internalType": "address",
          "name": "newOwner",
          "type": "address"
        }
      ],
      "name": "OwnershipTransferred",
      "type": "event"
    },
    {
      "anonymous": false,
      "inputs": [
        {
          "indexed": false,
          "internalType": "address",
          "name": "tokenContract",
          "type": "address"
        },
        {
          "indexed": false,
          "internalType": "uint256",
          "name": "amount",
          "type": "uint256"
        }
      ],
      "name": "TokenWithdrawn",
      "type": "event"
    },
    {
      "inputs": [],
      "name": "getMintFee",
      "outputs": [
        {
          "internalType": "uint256",
          "name": "fee",
          "type": "uint256"
        }
      ],
      "stateMutability": "view",
      "type": "function"
    },
    {
      "inputs": [],
      "name": "owner",
      "outputs": [
        {
          "internalType": "address",
          "name": "",
          "type": "address"
        }
      ],
      "stateMutability": "view",
      "type": "function"
    },
    {
      "inputs": [
        {
          "internalType": "string",
          "name": "",
          "type": "string"
        }
      ],
      "name": "purchaseInfo",
      "outputs": [
        {
          "internalType": "uint256",
          "name": "",
          "type": "uint256"
        }
      ],
      "stateMutability": "view",
      "type": "function"
    },
    {
      "inputs": [
        {
          "internalType": "address",
          "name": "receiveToken",
          "type": "address"
        },
        {
          "internalType": "uint256",
          "name": "amount",
          "type": "uint256"
        },
        {
          "internalType": "string",
          "name": "paymentId",
          "type": "string"
        },
        {
          "internalType": "string",
          "name": "optional",
          "type": "string"
        },
        {
          "internalType": "bytes",
          "name": "",
          "type": "bytes"
        }
      ],
      "name": "receivePayment",
      "outputs": [],
      "stateMutability": "payable",
      "type": "function"
    },
    {
      "inputs": [],
      "name": "renounceOwnership",
      "outputs": [],
      "stateMutability": "nonpayable",
      "type": "function"
    },
    {
      "inputs": [],
      "name": "supportSlashExtensionInterface",
      "outputs": [
        {
          "internalType": "uint8",
          "name": "",
          "type": "uint8"
        }
      ],
      "stateMutability": "pure",
      "type": "function"
    },
    {
      "inputs": [
        {
          "internalType": "address",
          "name": "newOwner",
          "type": "address"
        }
      ],
      "name": "transferOwnership",
      "outputs": [],
      "stateMutability": "nonpayable",
      "type": "function"
    },
    {
      "inputs": [
        {
          "internalType": "address",
          "name": "newGachaPon",
          "type": "address"
        }
      ],
      "name": "updateGachaPon",
      "outputs": [],
      "stateMutability": "nonpayable",
      "type": "function"
    },
    {
      "inputs": [
        {
          "internalType": "uint256",
          "name": "newFee",
          "type": "uint256"
        }
      ],
      "name": "updateMintFee",
      "outputs": [],
      "stateMutability": "nonpayable",
      "type": "function"
    },
    {
      "inputs": [
        {
          "internalType": "address",
          "name": "tokenContract",
          "type": "address"
        }
      ],
      "name": "withdrawToken",
      "outputs": [],
      "stateMutability": "nonpayable",
      "type": "function"
    }
  ],
  "bytecode": "0x608060405234801561001057600080fd5b5060405161102238038061102283398101604081905261002f916100b1565b61003833610061565b600180546001600160a01b0319166001600160a01b0393909316929092179091556002556100eb565b600080546001600160a01b038381166001600160a01b0319831681178455604051919092169283917f8be0079c531659141344cd1fd0a4f28419497f9722a3daafe3b4186f6b6457e09190a35050565b600080604083850312156100c457600080fd5b82516001600160a01b03811681146100db57600080fd5b6020939093015192949293505050565b610f28806100fa6000396000f3fe6080604052600436106100915760003560e01c8063894760691161005957806389476069146101405780638ab43142146101605780638da5cb5b1461017c5780638dcf6066146101a4578063f2fde38b146101c457600080fd5b8063012a6631146100965780633ab4dcd5146100ab578063715018a6146100f65780637a5caab31461010b57806384017e5214610120575b600080fd5b6100a96100a4366004610c55565b6101e4565b005b3480156100b757600080fd5b506100e36100c6366004610d1f565b805160208183018101805160038252928201919093012091525481565b6040519081526020015b60405180910390f35b34801561010257600080fd5b506100a96102e3565b34801561011757600080fd5b506002546100e3565b34801561012c57600080fd5b506100a961013b366004610dd0565b6102f7565b34801561014c57600080fd5b506100a961015b366004610de9565b610304565b34801561016c57600080fd5b50604051600281526020016100ed565b34801561018857600080fd5b506000546040516001600160a01b0390911681526020016100ed565b3480156101b057600080fd5b506100a96101bf366004610de9565b6103e3565b3480156101d057600080fd5b506100a96101df366004610de9565b61040d565b6002546101f490620f4240610e1a565b87101561023e5760405162461bcd60e51b81526020600482015260136024820152721a5b9cdd59999a58da595b9d08185b5bdd5b9d606a1b60448201526064015b60405180910390fd5b610266336102546000546001600160a01b031690565b6001600160a01b038b1691908a610486565b6102d986868080601f01602080910402602001604051908101604052809392919081815260200183838082843760009201919091525050604080516020601f8a01819004810282018101909252888152925088915087908190840183828082843760009201919091525061057192505050565b5050505050505050565b6102eb610608565b6102f56000610662565b565b6102ff610608565b600255565b61030c610608565b60006103216001600160a01b038316306106b2565b116103605760405162461bcd60e51b815260206004820152600f60248201526e62616c616e6365206973207a65726f60881b6044820152606401610235565b610388336103776001600160a01b038416306106b2565b6001600160a01b0384169190610746565b507fa2bd9fcfcdba69f52bcd9a520846ad4bd685b187483f53efc42d035b2ddebff0816103be6001600160a01b038216306106b2565b604080516001600160a01b03909316835260208301919091520160405180910390a150565b6103eb610608565b600180546001600160a01b0319166001600160a01b0392909216919091179055565b610415610608565b6001600160a01b03811661047a5760405162461bcd60e51b815260206004820152602660248201527f4f776e61626c653a206e6577206f776e657220697320746865207a65726f206160448201526564647265737360d01b6064820152608401610235565b61048381610662565b50565b801561056b576104958461079c565b15610556576001600160a01b038316331480156104b25750803410155b6105125760405162461bcd60e51b815260206004820152602b60248201527f57726f6e6720757365616765206f66204554482e756e6976657273616c54726160448201526a6e7366657246726f6d282960a81b6064820152608401610235565b6001600160a01b0382163014610535576105356001600160a01b038316826107d5565b803411156105515761055161054a8234610e31565b33906107d5565b61056b565b61056b6001600160a01b0385168484846108f3565b50505050565b60015460405163a0a400cb60e01b81523260048201526000916001600160a01b03169063a0a400cb906024016020604051808303816000875af11580156105bc573d6000803e3d6000fd5b505050506040513d601f19601f820116820180604052508101906105e09190610e44565b9050806003846040516105f39190610e81565b90815260405190819003602001902055505050565b6000546001600160a01b031633146102f55760405162461bcd60e51b815260206004820181905260248201527f4f776e61626c653a2063616c6c6572206973206e6f7420746865206f776e65726044820152606401610235565b600080546001600160a01b038381166001600160a01b0319831681178455604051919092169283917f8be0079c531659141344cd1fd0a4f28419497f9722a3daafe3b4186f6b6457e09190a35050565b60006106bd8361079c565b156106d357506001600160a01b03811631610740565b6040516370a0823160e01b81526001600160a01b0383811660048301528416906370a0823190602401602060405180830381865afa158015610719573d6000803e3d6000fd5b505050506040513d601f19601f8201168201806040525081019061073d9190610e44565b90505b92915050565b60008160000361075857506001610795565b6107618461079c565b15610781576107796001600160a01b038416836107d5565b506001610795565b6107796001600160a01b038516848461095e565b9392505050565b60006001600160a01b038216158061074057506001600160a01b03821673eeeeeeeeeeeeeeeeeeeeeeeeeeeeeeeeeeeeeeee1492915050565b804710156108255760405162461bcd60e51b815260206004820152601d60248201527f416464726573733a20696e73756666696369656e742062616c616e63650000006044820152606401610235565b6000826001600160a01b03168260405160006040518083038185875af1925050503d8060008114610872576040519150601f19603f3d011682016040523d82523d6000602084013e610877565b606091505b50509050806108ee5760405162461bcd60e51b815260206004820152603a60248201527f416464726573733a20756e61626c6520746f2073656e642076616c75652c207260448201527f6563697069656e74206d617920686176652072657665727465640000000000006064820152608401610235565b505050565b6040516001600160a01b038085166024830152831660448201526064810182905261056b9085906323b872dd60e01b906084015b60408051601f198184030181529190526020810180516001600160e01b03166001600160e01b03199093169290921790915261098e565b6040516001600160a01b0383166024820152604481018290526108ee90849063a9059cbb60e01b90606401610927565b60006109e3826040518060400160405280602081526020017f5361666545524332303a206c6f772d6c6576656c2063616c6c206661696c6564815250856001600160a01b0316610a609092919063ffffffff16565b8051909150156108ee5780806020019051810190610a019190610e9d565b6108ee5760405162461bcd60e51b815260206004820152602a60248201527f5361666545524332303a204552433230206f7065726174696f6e20646964206e6044820152691bdd081cdd58d8d9595960b21b6064820152608401610235565b6060610a6f8484600085610a77565b949350505050565b606082471015610ad85760405162461bcd60e51b815260206004820152602660248201527f416464726573733a20696e73756666696369656e742062616c616e636520666f6044820152651c8818d85b1b60d21b6064820152608401610235565b600080866001600160a01b03168587604051610af49190610e81565b60006040518083038185875af1925050503d8060008114610b31576040519150601f19603f3d011682016040523d82523d6000602084013e610b36565b606091505b5091509150610b4787838387610b52565b979650505050505050565b60608315610bc1578251600003610bba576001600160a01b0385163b610bba5760405162461bcd60e51b815260206004820152601d60248201527f416464726573733a2063616c6c20746f206e6f6e2d636f6e74726163740000006044820152606401610235565b5081610a6f565b610a6f8383815115610bd65781518083602001fd5b8060405162461bcd60e51b81526004016102359190610ebf565b80356001600160a01b0381168114610c0757600080fd5b919050565b60008083601f840112610c1e57600080fd5b50813567ffffffffffffffff811115610c3657600080fd5b602083019150836020828501011115610c4e57600080fd5b9250929050565b60008060008060008060008060a0898b031215610c7157600080fd5b610c7a89610bf0565b975060208901359650604089013567ffffffffffffffff80821115610c9e57600080fd5b610caa8c838d01610c0c565b909850965060608b0135915080821115610cc357600080fd5b610ccf8c838d01610c0c565b909650945060808b0135915080821115610ce857600080fd5b50610cf58b828c01610c0c565b999c989b5096995094979396929594505050565b634e487b7160e01b600052604160045260246000fd5b600060208284031215610d3157600080fd5b813567ffffffffffffffff80821115610d4957600080fd5b818401915084601f830112610d5d57600080fd5b813581811115610d6f57610d6f610d09565b604051601f8201601f19908116603f01168101908382118183101715610d9757610d97610d09565b81604052828152876020848701011115610db057600080fd5b826020860160208301376000928101602001929092525095945050505050565b600060208284031215610de257600080fd5b5035919050565b600060208284031215610dfb57600080fd5b61079582610bf0565b634e487b7160e01b600052601160045260246000fd5b808202811582820484141761074057610740610e04565b8181038181111561074057610740610e04565b600060208284031215610e5657600080fd5b5051919050565b60005b83811015610e78578181015183820152602001610e60565b50506000910152565b60008251610e93818460208701610e5d565b9190910192915050565b600060208284031215610eaf57600080fd5b8151801515811461079557600080fd5b6020815260008251806020840152610ede816040850160208701610e5d565b601f01601f1916919091016040019291505056fea2646970667358221220e3f8921d681b49f33c41bf95df4a4bed679272a859657d3b059a1d63526dfaa464736f6c63430008120033",
  "linkReferences": {},
  "deployedLinkReferences": {}
}