{
  "_format": "hh-sol-artifact-1",
  "contractName": "GachaPon",
  "sourceName": "contracts/GachaPon.sol",
  "abi": [
    {
      "inputs": [],
      "stateMutability": "nonpayable",
      "type": "constructor"
    },
    {
      "anonymous": false,
      "inputs": [
        {
          "indexed": true,
          "internalType": "address",
          "name": "owner",
          "type": "address"
        },
        {
          "indexed": true,
          "internalType": "address",
          "name": "approved",
          "type": "address"
        },
        {
          "indexed": true,
          "internalType": "uint256",
          "name": "tokenId",
          "type": "uint256"
        }
      ],
      "name": "Approval",
      "type": "event"
    },
    {
      "anonymous": false,
      "inputs": [
        {
          "indexed": true,
          "internalType": "address",
          "name": "owner",
          "type": "address"
        },
        {
          "indexed": true,
          "internalType": "address",
          "name": "operator",
          "type": "address"
        },
        {
          "indexed": false,
          "internalType": "bool",
          "name": "approved",
          "type": "bool"
        }
      ],
      "name": "ApprovalForAll",
      "type": "event"
    },
    {
      "anonymous": false,
      "inputs": [
        {
          "indexed": true,
          "internalType": "address",
          "name": "previousOwner",
          "type": "address"
        },
        {
          "indexed": true,
          "internalType": "address",
          "name": "newOwner",
          "type": "address"
        }
      ],
      "name": "OwnershipTransferred",
      "type": "event"
    },
    {
      "anonymous": false,
      "inputs": [
        {
          "indexed": true,
          "internalType": "address",
          "name": "_from",
          "type": "address"
        },
        {
          "indexed": true,
          "internalType": "uint256",
          "name": "_toTokenId",
          "type": "uint256"
        },
        {
          "indexed": true,
          "internalType": "address",
          "name": "_childContract",
          "type": "address"
        },
        {
          "indexed": false,
          "internalType": "uint256",
          "name": "_childTokenId",
          "type": "uint256"
        }
      ],
      "name": "ReceivedChild",
      "type": "event"
    },
    {
      "anonymous": false,
      "inputs": [
        {
          "indexed": true,
          "internalType": "address",
          "name": "from",
          "type": "address"
        },
        {
          "indexed": true,
          "internalType": "address",
          "name": "to",
          "type": "address"
        },
        {
          "indexed": true,
          "internalType": "uint256",
          "name": "tokenId",
          "type": "uint256"
        }
      ],
      "name": "Transfer",
      "type": "event"
    },
    {
      "anonymous": false,
      "inputs": [
        {
          "indexed": true,
          "internalType": "uint256",
          "name": "_fromTokenId",
          "type": "uint256"
        },
        {
          "indexed": true,
          "internalType": "address",
          "name": "_to",
          "type": "address"
        },
        {
          "indexed": true,
          "internalType": "address",
          "name": "_childContract",
          "type": "address"
        },
        {
          "indexed": false,
          "internalType": "uint256",
          "name": "_childTokenId",
          "type": "uint256"
        }
      ],
      "name": "TransferChild",
      "type": "event"
    },
    {
      "inputs": [
        {
          "internalType": "address",
          "name": "_approved",
          "type": "address"
        },
        {
          "internalType": "uint256",
          "name": "_tokenId",
          "type": "uint256"
        }
      ],
      "name": "approve",
      "outputs": [],
      "stateMutability": "nonpayable",
      "type": "function"
    },
    {
      "inputs": [
        {
          "internalType": "address",
          "name": "_tokenOwner",
          "type": "address"
        }
      ],
      "name": "balanceOf",
      "outputs": [
        {
          "internalType": "uint256",
          "name": "",
          "type": "uint256"
        }
      ],
      "stateMutability": "view",
      "type": "function"
    },
    {
      "inputs": [
        {
          "internalType": "uint256",
          "name": "_tokenId",
          "type": "uint256"
        }
      ],
      "name": "burn",
      "outputs": [],
      "stateMutability": "nonpayable",
      "type": "function"
    },
    {
      "inputs": [
        {
          "internalType": "uint256",
          "name": "_tokenId",
          "type": "uint256"
        },
        {
          "internalType": "uint256",
          "name": "_index",
          "type": "uint256"
        }
      ],
      "name": "childContractByIndex",
      "outputs": [
        {
          "internalType": "address",
          "name": "childContract",
          "type": "address"
        }
      ],
      "stateMutability": "view",
      "type": "function"
    },
    {
      "inputs": [
        {
          "internalType": "address",
          "name": "_childContract",
          "type": "address"
        },
        {
          "internalType": "uint256",
          "name": "_childTokenId",
          "type": "uint256"
        }
      ],
      "name": "childExists",
      "outputs": [
        {
          "internalType": "bool",
          "name": "",
          "type": "bool"
        }
      ],
      "stateMutability": "view",
      "type": "function"
    },
    {
      "inputs": [
        {
          "internalType": "uint256",
          "name": "_tokenId",
          "type": "uint256"
        },
        {
          "internalType": "address",
          "name": "_childContract",
          "type": "address"
        },
        {
          "internalType": "uint256",
          "name": "_index",
          "type": "uint256"
        }
      ],
      "name": "childTokenByIndex",
      "outputs": [
        {
          "internalType": "uint256",
          "name": "childTokenId",
          "type": "uint256"
        }
      ],
      "stateMutability": "view",
      "type": "function"
    },
    {
      "inputs": [
        {
          "internalType": "address",
          "name": "extension",
          "type": "address"
        },
        {
          "internalType": "uint256",
          "name": "_tokenId",
          "type": "uint256"
        }
      ],
      "name": "closeGachaPon",
      "outputs": [],
      "stateMutability": "nonpayable",
      "type": "function"
    },
    {
      "inputs": [
        {
          "internalType": "uint256",
          "name": "_tokenId",
          "type": "uint256"
        }
      ],
      "name": "getAllCapsuleContractsById",
      "outputs": [
        {
          "internalType": "address[]",
          "name": "capsuleContracts",
          "type": "address[]"
        }
      ],
      "stateMutability": "view",
      "type": "function"
    },
    {
      "inputs": [
        {
          "internalType": "address",
          "name": "_contract",
          "type": "address"
        },
        {
          "internalType": "uint256[]",
          "name": "_tokenIds",
          "type": "uint256[]"
        }
      ],
      "name": "getAllCapsuleTokenURIs",
      "outputs": [
        {
          "internalType": "string[]",
          "name": "uris",
          "type": "string[]"
        }
      ],
      "stateMutability": "view",
      "type": "function"
    },
    {
      "inputs": [
        {
          "internalType": "uint256",
          "name": "_tokenId",
          "type": "uint256"
        },
        {
          "internalType": "address",
          "name": "_capsuleContract",
          "type": "address"
        }
      ],
      "name": "getAllCapsuleTokens",
      "outputs": [
        {
          "internalType": "uint256[]",
          "name": "tokenIds",
          "type": "uint256[]"
        }
      ],
      "stateMutability": "view",
      "type": "function"
    },
    {
      "inputs": [],
      "name": "getAllGachaBoxDatas",
      "outputs": [
        {
          "components": [
            {
              "internalType": "uint256",
              "name": "id",
              "type": "uint256"
            },
            {
              "internalType": "string",
              "name": "uri",
              "type": "string"
            },
            {
              "internalType": "uint256",
              "name": "fee",
              "type": "uint256"
            },
            {
              "internalType": "address",
              "name": "rootOwner",
              "type": "address"
            },
            {
              "internalType": "bool",
              "name": "isOpened",
              "type": "bool"
            }
          ],
          "internalType": "struct GachaPon.GachaData[]",
          "name": "gachas",
          "type": "tuple[]"
        }
      ],
      "stateMutability": "view",
      "type": "function"
    },
    {
      "inputs": [
        {
          "internalType": "uint256",
          "name": "_tokenId",
          "type": "uint256"
        }
      ],
      "name": "getApproved",
      "outputs": [
        {
          "internalType": "address",
          "name": "",
          "type": "address"
        }
      ],
      "stateMutability": "view",
      "type": "function"
    },
    {
      "inputs": [
        {
          "internalType": "address",
          "name": "_from",
          "type": "address"
        },
        {
          "internalType": "uint256",
          "name": "_tokenId",
          "type": "uint256"
        },
        {
          "internalType": "address",
          "name": "_childContract",
          "type": "address"
        },
        {
          "internalType": "uint256",
          "name": "_childTokenId",
          "type": "uint256"
        }
      ],
      "name": "getChild",
      "outputs": [],
      "stateMutability": "nonpayable",
      "type": "function"
    },
    {
      "inputs": [
        {
          "internalType": "uint256",
          "name": "_tokenId",
          "type": "uint256"
        }
      ],
      "name": "getGachaFeeById",
      "outputs": [
        {
          "internalType": "uint256",
          "name": "fee",
          "type": "uint256"
        }
      ],
      "stateMutability": "view",
      "type": "function"
    },
    {
      "inputs": [
        {
          "internalType": "address",
          "name": "_owner",
          "type": "address"
        },
        {
          "internalType": "address",
          "name": "_operator",
          "type": "address"
        }
      ],
      "name": "isApprovedForAll",
      "outputs": [
        {
          "internalType": "bool",
          "name": "",
          "type": "bool"
        }
      ],
      "stateMutability": "view",
      "type": "function"
    },
    {
      "inputs": [
        {
          "internalType": "address",
          "name": "recipient",
          "type": "address"
        },
        {
          "internalType": "string",
          "name": "_tokenURI",
          "type": "string"
        },
        {
          "internalType": "uint256",
          "name": "_newFee",
          "type": "uint256"
        }
      ],
      "name": "mint",
      "outputs": [
        {
          "internalType": "uint256",
          "name": "",
          "type": "uint256"
        }
      ],
      "stateMutability": "nonpayable",
      "type": "function"
    },
    {
      "inputs": [
        {
          "internalType": "address",
          "name": "recipient",
          "type": "address"
        }
      ],
      "name": "mintForSlashPayment",
      "outputs": [
        {
          "internalType": "uint256",
          "name": "",
          "type": "uint256"
        }
      ],
      "stateMutability": "nonpayable",
      "type": "function"
    },
    {
      "inputs": [],
      "name": "name",
      "outputs": [
        {
          "internalType": "string",
          "name": "",
          "type": "string"
        }
      ],
      "stateMutability": "view",
      "type": "function"
    },
    {
      "inputs": [
        {
          "internalType": "address",
          "name": "_operator",
          "type": "address"
        },
        {
          "internalType": "address",
          "name": "_from",
          "type": "address"
        },
        {
          "internalType": "uint256",
          "name": "_childTokenId",
          "type": "uint256"
        },
        {
          "internalType": "bytes",
          "name": "_data",
          "type": "bytes"
        }
      ],
      "name": "onERC721Received",
      "outputs": [
        {
          "internalType": "bytes4",
          "name": "",
          "type": "bytes4"
        }
      ],
      "stateMutability": "nonpayable",
      "type": "function"
    },
    {
      "inputs": [
        {
          "internalType": "address",
          "name": "_from",
          "type": "address"
        },
        {
          "internalType": "uint256",
          "name": "_childTokenId",
          "type": "uint256"
        },
        {
          "internalType": "bytes",
          "name": "_data",
          "type": "bytes"
        }
      ],
      "name": "onERC721Received",
      "outputs": [
        {
          "internalType": "bytes4",
          "name": "",
          "type": "bytes4"
        }
      ],
      "stateMutability": "nonpayable",
      "type": "function"
    },
    {
      "inputs": [
        {
          "internalType": "address",
          "name": "extension",
          "type": "address"
        },
        {
          "internalType": "uint256",
          "name": "_tokenId",
          "type": "uint256"
        }
      ],
      "name": "openGachaPon",
      "outputs": [],
      "stateMutability": "nonpayable",
      "type": "function"
    },
    {
      "inputs": [],
      "name": "owner",
      "outputs": [
        {
          "internalType": "address",
          "name": "",
          "type": "address"
        }
      ],
      "stateMutability": "view",
      "type": "function"
    },
    {
      "inputs": [
        {
          "internalType": "uint256",
          "name": "_tokenId",
          "type": "uint256"
        }
      ],
      "name": "ownerOf",
      "outputs": [
        {
          "internalType": "address",
          "name": "tokenOwner",
          "type": "address"
        }
      ],
      "stateMutability": "view",
      "type": "function"
    },
    {
      "inputs": [
        {
          "internalType": "address",
          "name": "_childContract",
          "type": "address"
        },
        {
          "internalType": "uint256",
          "name": "_childTokenId",
          "type": "uint256"
        }
      ],
      "name": "ownerOfChild",
      "outputs": [
        {
          "internalType": "bytes32",
          "name": "parentTokenOwner",
          "type": "bytes32"
        },
        {
          "internalType": "uint256",
          "name": "parentTokenId",
          "type": "uint256"
        }
      ],
      "stateMutability": "view",
      "type": "function"
    },
    {
      "inputs": [
        {
          "internalType": "uint256",
          "name": "_tokenId",
          "type": "uint256"
        },
        {
          "internalType": "address",
          "name": "operator",
          "type": "address"
        }
      ],
      "name": "registerPaymentExtension",
      "outputs": [],
      "stateMutability": "nonpayable",
      "type": "function"
    },
    {
      "inputs": [],
      "name": "renounceOwnership",
      "outputs": [],
      "stateMutability": "nonpayable",
      "type": "function"
    },
    {
      "inputs": [
        {
          "internalType": "uint256",
          "name": "_tokenId",
          "type": "uint256"
        }
      ],
      "name": "rootOwnerOf",
      "outputs": [
        {
          "internalType": "bytes32",
          "name": "rootOwner",
          "type": "bytes32"
        }
      ],
      "stateMutability": "view",
      "type": "function"
    },
    {
      "inputs": [
        {
          "internalType": "address",
          "name": "_childContract",
          "type": "address"
        },
        {
          "internalType": "uint256",
          "name": "_childTokenId",
          "type": "uint256"
        }
      ],
      "name": "rootOwnerOfChild",
      "outputs": [
        {
          "internalType": "bytes32",
          "name": "rootOwner",
          "type": "bytes32"
        }
      ],
      "stateMutability": "view",
      "type": "function"
    },
    {
      "inputs": [
        {
          "internalType": "uint256",
          "name": "_fromTokenId",
          "type": "uint256"
        },
        {
          "internalType": "address",
          "name": "_to",
          "type": "address"
        },
        {
          "internalType": "address",
          "name": "_childContract",
          "type": "address"
        },
        {
          "internalType": "uint256",
          "name": "_childTokenId",
          "type": "uint256"
        }
      ],
      "name": "safeTransferChild",
      "outputs": [],
      "stateMutability": "nonpayable",
      "type": "function"
    },
    {
      "inputs": [
        {
          "internalType": "uint256",
          "name": "_fromTokenId",
          "type": "uint256"
        },
        {
          "internalType": "address",
          "name": "_to",
          "type": "address"
        },
        {
          "internalType": "address",
          "name": "_childContract",
          "type": "address"
        },
        {
          "internalType": "uint256",
          "name": "_childTokenId",
          "type": "uint256"
        },
        {
          "internalType": "bytes",
          "name": "_data",
          "type": "bytes"
        }
      ],
      "name": "safeTransferChild",
      "outputs": [],
      "stateMutability": "nonpayable",
      "type": "function"
    },
    {
      "inputs": [
        {
          "internalType": "address",
          "name": "from",
          "type": "address"
        },
        {
          "internalType": "address",
          "name": "to",
          "type": "address"
        },
        {
          "internalType": "uint256",
          "name": "tokenId",
          "type": "uint256"
        }
      ],
      "name": "safeTransferFrom",
      "outputs": [],
      "stateMutability": "nonpayable",
      "type": "function"
    },
    {
      "inputs": [
        {
          "internalType": "address",
          "name": "from",
          "type": "address"
        },
        {
          "internalType": "address",
          "name": "to",
          "type": "address"
        },
        {
          "internalType": "uint256",
          "name": "tokenId",
          "type": "uint256"
        },
        {
          "internalType": "bytes",
          "name": "data",
          "type": "bytes"
        }
      ],
      "name": "safeTransferFrom",
      "outputs": [],
      "stateMutability": "nonpayable",
      "type": "function"
    },
    {
      "inputs": [
        {
          "internalType": "address",
          "name": "_operator",
          "type": "address"
        },
        {
          "internalType": "bool",
          "name": "_approved",
          "type": "bool"
        }
      ],
      "name": "setApprovalForAll",
      "outputs": [],
      "stateMutability": "nonpayable",
      "type": "function"
    },
    {
      "inputs": [
        {
          "internalType": "bytes4",
          "name": "interfaceId",
          "type": "bytes4"
        }
      ],
      "name": "supportsInterface",
      "outputs": [
        {
          "internalType": "bool",
          "name": "",
          "type": "bool"
        }
      ],
      "stateMutability": "view",
      "type": "function"
    },
    {
      "inputs": [],
      "name": "symbol",
      "outputs": [
        {
          "internalType": "string",
          "name": "",
          "type": "string"
        }
      ],
      "stateMutability": "view",
      "type": "function"
    },
    {
      "inputs": [],
      "name": "tokenCount",
      "outputs": [
        {
          "internalType": "uint256",
          "name": "",
          "type": "uint256"
        }
      ],
      "stateMutability": "view",
      "type": "function"
    },
    {
      "inputs": [
        {
          "internalType": "uint256",
          "name": "_tokenId",
          "type": "uint256"
        }
      ],
      "name": "tokenURI",
      "outputs": [
        {
          "internalType": "string",
          "name": "",
          "type": "string"
        }
      ],
      "stateMutability": "view",
      "type": "function"
    },
    {
      "inputs": [
        {
          "internalType": "uint256",
          "name": "_tokenId",
          "type": "uint256"
        }
      ],
      "name": "totalChildContracts",
      "outputs": [
        {
          "internalType": "uint256",
          "name": "",
          "type": "uint256"
        }
      ],
      "stateMutability": "view",
      "type": "function"
    },
    {
      "inputs": [
        {
          "internalType": "uint256",
          "name": "_tokenId",
          "type": "uint256"
        },
        {
          "internalType": "address",
          "name": "_childContract",
          "type": "address"
        }
      ],
      "name": "totalChildTokens",
      "outputs": [
        {
          "internalType": "uint256",
          "name": "",
          "type": "uint256"
        }
      ],
      "stateMutability": "view",
      "type": "function"
    },
    {
      "inputs": [
        {
          "internalType": "uint256",
          "name": "_fromTokenId",
          "type": "uint256"
        },
        {
          "internalType": "address",
          "name": "_to",
          "type": "address"
        },
        {
          "internalType": "address",
          "name": "_childContract",
          "type": "address"
        },
        {
          "internalType": "uint256",
          "name": "_childTokenId",
          "type": "uint256"
        }
      ],
      "name": "transferChild",
      "outputs": [],
      "stateMutability": "nonpayable",
      "type": "function"
    },
    {
      "inputs": [
        {
          "internalType": "uint256",
          "name": "_fromTokenId",
          "type": "uint256"
        },
        {
          "internalType": "address",
          "name": "_toContract",
          "type": "address"
        },
        {
          "internalType": "uint256",
          "name": "_toTokenId",
          "type": "uint256"
        },
        {
          "internalType": "address",
          "name": "_childContract",
          "type": "address"
        },
        {
          "internalType": "uint256",
          "name": "_childTokenId",
          "type": "uint256"
        },
        {
          "internalType": "bytes",
          "name": "_data",
          "type": "bytes"
        }
      ],
      "name": "transferChildToParent",
      "outputs": [],
      "stateMutability": "nonpayable",
      "type": "function"
    },
    {
      "inputs": [
        {
          "internalType": "address",
          "name": "from",
          "type": "address"
        },
        {
          "internalType": "address",
          "name": "to",
          "type": "address"
        },
        {
          "internalType": "uint256",
          "name": "tokenId",
          "type": "uint256"
        }
      ],
      "name": "transferFrom",
      "outputs": [],
      "stateMutability": "nonpayable",
      "type": "function"
    },
    {
      "inputs": [
        {
          "internalType": "address",
          "name": "newOwner",
          "type": "address"
        }
      ],
      "name": "transferOwnership",
      "outputs": [],
      "stateMutability": "nonpayable",
      "type": "function"
    },
    {
      "inputs": [
        {
          "internalType": "uint256",
          "name": "_tokenId",
          "type": "uint256"
        },
        {
          "internalType": "string",
          "name": "_tokenURI",
          "type": "string"
        },
        {
          "internalType": "uint256",
          "name": "_newFee",
          "type": "uint256"
        }
      ],
      "name": "updateGachaInfo",
      "outputs": [],
      "stateMutability": "nonpayable",
      "type": "function"
    },
    {
      "inputs": [
        {
          "internalType": "address",
          "name": "newContract",
          "type": "address"
        }
      ],
      "name": "updateSlashMintExtension",
      "outputs": [],
      "stateMutability": "nonpayable",
      "type": "function"
    }
  ],
  "bytecode": "0x60806040523480156200001157600080fd5b506040518060400160405280601681526020017f4e6f6e2d46756e6769626c652047616368612d506f6e0000000000000000000081525060405180604001604052806005815260200164474143484160d81b8152508160009081620000779190620001a4565b506001620000868282620001a4565b505050620000a36200009d620000a960201b60201c565b620000ad565b62000270565b3390565b600780546001600160a01b038381166001600160a01b0319831681179093556040519116919082907f8be0079c531659141344cd1fd0a4f28419497f9722a3daafe3b4186f6b6457e090600090a35050565b634e487b7160e01b600052604160045260246000fd5b600181811c908216806200012a57607f821691505b6020821081036200014b57634e487b7160e01b600052602260045260246000fd5b50919050565b601f8211156200019f57600081815260208120601f850160051c810160208610156200017a5750805b601f850160051c820191505b818110156200019b5782815560010162000186565b5050505b505050565b81516001600160401b03811115620001c057620001c0620000ff565b620001d881620001d1845462000115565b8462000151565b602080601f831160018114620002105760008415620001f75750858301515b600019600386901b1c1916600185901b1785556200019b565b600085815260208120601f198616915b82811015620002415788860151825594840194600190910190840162000220565b5085821015620002605787850151600019600388901b60f8161c191681555b5050505050600190811b01905550565b614ae480620002806000396000f3fe608060405234801561001057600080fd5b506004361061027e5760003560e01c80638d81f51e1161015c578063ba6b5f96116100ce578063d001f01b11610087578063d001f01b14610637578063e985e9c51461064a578063eadb80b81461065d578063ed81cdda14610685578063f0b9e5ba14610698578063f2fde38b146106ab57600080fd5b8063ba6b5f96146105c5578063ba7aef43146105d8578063bef44f18146105eb578063c87b56dd146105fe578063c8dda6f114610611578063cbb03b171461062457600080fd5b80639f181b5e116101205780639f181b5e1461055d578063a0a400cb14610566578063a22cb46514610579578063ae29f7311461058c578063b3dfdc321461059f578063b88d4fde146105b257600080fd5b80638d81f51e146104fc5780638da5cb5b1461050f5780638da7d0b51461052057806395d89b411461054057806396c4f5ad1461054857600080fd5b806335b21ceb116101f55780634dd891ff116101b95780634dd891ff1461043b57806350c2fc471461045b5780635680a3ad1461047b5780636352211e146104ce57806370a08231146104e1578063715018a6146104f457600080fd5b806335b21ceb146103ac578063399ff8bf146103e257806342842e0e1461040257806342966c681461041557806343a61a8e1461042857600080fd5b8063095ea7b311610247578063095ea7b3146103135780630d5a621b14610326578063150b7a0214610339578063160b01a1146103655780631d98f3c51461038657806323b872dd1461039957600080fd5b8062e0fa2c1461028357806301ffc9a71461029857806306fdde03146102c0578063081812fc146102d557806308937f6214610300575b600080fd5b610296610291366004613b64565b6106be565b005b6102ab6102a6366004613baa565b61079a565b60405190151581526020015b60405180910390f35b6102c86107ec565b6040516102b79190613c17565b6102e86102e3366004613c2a565b61087e565b6040516001600160a01b0390911681526020016102b7565b61029661030e366004613c84565b6108ba565b610296610321366004613d09565b610af2565b6102e8610334366004613d35565b610beb565b61034c610347366004613d57565b610caa565b6040516001600160e01b031990911681526020016102b7565b610378610373366004613dc9565b610dbf565b6040519081526020016102b7565b610296610394366004613e01565b610e9e565b6102966103a7366004613e49565b611111565b6103786103ba366004613b64565b60009182526012602090815260408084206001600160a01b0393909316845291905290205490565b6103f56103f0366004613ebf565b611147565b6040516102b79190613f79565b610296610410366004613e49565b611359565b610296610423366004613c2a565b611374565b610378610436366004613c2a565b611388565b61044e610449366004613b64565b611395565b6040516102b79190613fdb565b61046e610469366004613c2a565b611409565b6040516102b7919061401f565b6102ab610489366004613d09565b6001600160a01b038216600081815260146020908152604080832085845282528083205483526013825280832093835292815282822084835290522054151592915050565b6102e86104dc366004613c2a565b611475565b6103786104ef366004614060565b6114da565b610296611549565b61029661050a36600461407d565b61155d565b6007546001600160a01b03166102e8565b61037861052e366004613c2a565b60009081526010602052604090205490565b6102c8611792565b6105506117a1565b6040516102b791906140f8565b61037860085481565b610378610574366004614060565b61198b565b6102966105873660046141a6565b611a99565b61037861059a366004613c2a565b611b56565b6102966105ad366004614060565b611b98565b6102966105c0366004614239565b611bc2565b6102966105d33660046142b8565b611bfa565b6103786105e6366004614310565b611db7565b6102966105f9366004613e01565b611e95565b6102c861060c366004613c2a565b612116565b61029661061f366004613d09565b612121565b610296610632366004614368565b61234e565b610296610645366004613d09565b61240e565b6102ab61065836600461439a565b61263a565b61067061066b366004613d09565b61270a565b604080519283526020830191909152016102b7565b610378610693366004613d09565b6127a3565b61034c6106a63660046143c8565b612890565b6102966106b9366004614060565b6129a4565b6000821180156106d057506008548211155b6106f55760405162461bcd60e51b81526004016106ec90614423565b60405180910390fd5b6000828152600c60205260409020546001600160a01b03163314801561072b57503361072083611388565b6001600160a01b0316145b61076c5760405162461bcd60e51b815260206004820152601260248201527130b63637bbb2b21037b7363c9037bbb732b960711b60448201526064016106ec565b6000918252600b602052604090912080546001600160a01b0319166001600160a01b03909216919091179055565b60006001600160e01b031982166380ac58cd60e01b14806107cb57506001600160e01b03198216635b5e139f60e01b145b806107e657506301ffc9a760e01b6001600160e01b03198316145b92915050565b6060600080546107fb9061444c565b80601f01602080910402602001604051908101604052809291908181526020018280546108279061444c565b80156108745780601f1061084957610100808354040283529160200191610874565b820191906000526020600020905b81548152906001019060200180831161085757829003601f168201915b5050505050905090565b60008061088a83611388565b6001600160a01b039081166000908152600d60209081526040808320968352959052939093205490921692915050565b6001600160a01b038416600090815260146020908152604080832086845290915290205480151580610915575060008181526013602090815260408083206001600160a01b0389168452825280832087845290915290205415155b6109315760405162461bcd60e51b81526004016106ec90614480565b8781146109805760405162461bcd60e51b815260206004820152601f60248201527f6f776e657220646f6573206e6f74206d6174636820746f2066726f6d2069640060448201526064016106ec565b6001600160a01b0387166109a65760405162461bcd60e51b81526004016106ec906144b7565b60006109b182611388565b6001600160a01b03169050338114806109ed57506001600160a01b0381166000908152600f6020908152604080832033845290915290205460ff165b80610a1c57506001600160a01b038181166000908152600d602090815260408083208684529091529020541633145b610a385760405162461bcd60e51b81526004016106ec906144ee565b610a43898787612a1a565b6040516307a8567d60e51b81526001600160a01b0387169063f50acfa090610a799030908c908c908b908b908b90600401614558565b600060405180830381600087803b158015610a9357600080fd5b505af1158015610aa7573d6000803e3d6000fd5b50505050856001600160a01b0316886001600160a01b03168a600080516020614a8f83398151915288604051610adf91815260200190565b60405180910390a4505050505050505050565b6000610afd82611388565b6001600160a01b0316905033811480610b3957506001600160a01b0381166000908152600f6020908152604080832033845290915290205460ff165b610b855760405162461bcd60e51b815260206004820181905260248201527f646f206e6f7420686176652074686520726967746820746f20617070726f766560448201526064016106ec565b6001600160a01b038181166000818152600d6020908152604080832087845290915280822080546001600160a01b031916948816948517905551859392917f8c5be1e5ebec7d5bd14f71427d1e84f3dd0314c0f7b2291e5b200ac8c7c3b92591a4505050565b6000828152601060205260408120548210610c6e5760405162461bcd60e51b815260206004820152603960248201527f436f6e7472616374206164647265737320646f6573206e6f742065786973742060448201527f666f72207468697320746f6b656e20616e6420696e6465782e0000000000000060648201526084016106ec565b6000838152601060205260409020805483908110610c8e57610c8e61459f565b6000918252602090912001546001600160a01b03169392505050565b600081610cc95760405162461bcd60e51b81526004016106ec906145b5565b60a4356020831015610cee57610ce0836008614637565b610cec9061010061464e565b1c5b610cfa86823388612d71565b6040516331a9108f60e11b8152600481018690526000903390636352211e90602401602060405180830381865afa158015610d39573d6000803e3d6000fd5b505050506040513d601f19601f82011682018060405250810190610d5d9190614661565b6001600160a01b031603610dac5760405162461bcd60e51b815260206004820152601660248201527521b434b632103a37b5b2b7103737ba1037bbb732b21760511b60448201526064016106ec565b50630a85bd0160e11b9695505050505050565b60008381526012602090815260408083206001600160a01b03861684529091528120548210610e565760405162461bcd60e51b815260206004820152603f60248201527f546f6b656e20646f6573206e6f74206f776e2061206368696c6420746f6b656e60448201527f20617420636f6e7472616374206164647265737320616e6420696e6465782e0060648201526084016106ec565b60008481526012602090815260408083206001600160a01b03871684529091529020805483908110610e8a57610e8a61459f565b906000526020600020015490509392505050565b6001600160a01b038216600090815260146020908152604080832084845290915290205480151580610ef9575060008181526013602090815260408083206001600160a01b0387168452825280832085845290915290205415155b610f455760405162461bcd60e51b815260206004820152601760248201527f676976656e2064617461732061726520696e76616c696400000000000000000060448201526064016106ec565b848114610fa25760405162461bcd60e51b815260206004820152602560248201527f676976656e20746f6b656e4964206f6620676163686120626f7820697320696e6044820152641d985b1a5960da1b60648201526084016106ec565b6001600160a01b038416610fc85760405162461bcd60e51b81526004016106ec906144b7565b6000610fd382611388565b6001600160a01b031690503381148061100f57506001600160a01b0381166000908152600f6020908152604080832033845290915290205460ff165b8061103e57506001600160a01b038181166000908152600d602090815260408083208684529091529020541633145b61105a5760405162461bcd60e51b81526004016106ec9061467e565b611065828585612a1a565b604051632142170760e11b81523060048201526001600160a01b038681166024830152604482018590528516906342842e0e90606401600060405180830381600087803b1580156110b557600080fd5b505af11580156110c9573d6000803e3d6000fd5b50505050836001600160a01b0316856001600160a01b031683600080516020614a8f8339815191528660405161110191815260200190565b60405180910390a4505050505050565b61111b3382612fb5565b6111375760405162461bcd60e51b81526004016106ec906146c0565b611142838383613013565b505050565b6060600082516001600160401b0381111561116457611164613e79565b60405190808252806020026020018201604052801561119757816020015b60608152602001906001900390816111825790505b50905060005b835181101561135157846001600160a01b031663c87b56dd8583815181106111c7576111c761459f565b60200260200101516040518263ffffffff1660e01b81526004016111ed91815260200190565b600060405180830381865afa92505050801561122b57506040513d6000823e601f3d908101601f19168201604052611228919081019061470d565b60015b61131f57846001600160a01b031663c87b56dd8583815181106112505761125061459f565b60200260200101516040518263ffffffff1660e01b815260040161127691815260200190565b600060405180830381865afa9250505080156112b457506040513d6000823e601f3d908101601f191682016040526112b1919081019061470d565b60015b6112fb576112f66040518060400160405280602081526020017f646f6573206e6f7420657869737420746f6b656e5552492066756e6374696f6e815250613184565b61133f565b8083838151811061130e5761130e61459f565b60200260200101819052505061133f565b808383815181106113325761133261459f565b6020026020010181905250505b8061134981614783565b91505061119d565b509392505050565b61114283838360405180602001604052806000815250611bc2565b61137c6131c7565b61138581613221565b50565b60006107e66000836127a3565b60008281526012602090815260408083206001600160a01b03851684528252918290208054835181840281018401909452808452606093928301828280156113fc57602002820191906000526020600020905b8154815260200190600101908083116113e8575b5050505050905092915050565b60008181526010602090815260409182902080548351818402810184019094528084526060939283018282801561146957602002820191906000526020600020905b81546001600160a01b0316815260019091019060200180831161144b575b50505050509050919050565b6000818152600c60205260409020546001600160a01b0316806114d55760405162461bcd60e51b815260206004820152601860248201527719da5d995b881859191c995cdcc81a5cc81a5b9d985b1a5960421b60448201526064016106ec565b919050565b60006001600160a01b03821661152d5760405162461bcd60e51b815260206004820152601860248201527719da5d995b881859191c995cdcc81a5cc81a5b9d985b1a5960421b60448201526064016106ec565b506001600160a01b03166000908152600e602052604090205490565b6115516131c7565b61155b6000613261565b565b6001600160a01b0384166000908152601460209081526040808320868452909152902054801515806115b8575060008181526013602090815260408083206001600160a01b0389168452825280832087845290915290205415155b6115d45760405162461bcd60e51b81526004016106ec90614480565b8681146116235760405162461bcd60e51b815260206004820181905260248201527f6f776e657220646f6573206e6f74206d6174636820746f2066726f6d2069642060448201526064016106ec565b6001600160a01b0386166116495760405162461bcd60e51b81526004016106ec906144b7565b600061165482611388565b6001600160a01b031690503381148061169057506001600160a01b0381166000908152600f6020908152604080832033845290915290205460ff165b806116bf57506001600160a01b038181166000908152600d602090815260408083208684529091529020541633145b6116db5760405162461bcd60e51b81526004016106ec9061467e565b6116e6828787612a1a565b604051635c46a7ef60e11b81526001600160a01b0387169063b88d4fde9061171a9030908b908a908a908a9060040161479c565b600060405180830381600087803b15801561173457600080fd5b505af1158015611748573d6000803e3d6000fd5b50505050856001600160a01b0316876001600160a01b031683600080516020614a8f8339815191528860405161178091815260200190565b60405180910390a45050505050505050565b6060600180546107fb9061444c565b606060006008546001600160401b038111156117bf576117bf613e79565b60405190808252806020026020018201604052801561182d57816020015b61181a6040518060a0016040528060008152602001606081526020016000815260200160006001600160a01b031681526020016000151581525090565b8152602001906001900390816117dd5790505b50905060005b60085481101561198557600061184a8260016147db565b6000818152600b6020526040812054919250906001600160a01b0316156118ea576000828152600b6020908152604091829020548251630826f5dd60e11b815292516001600160a01b039091169263104debba9260048083019391928290030181865afa1580156118bf573d6000803e3d6000fd5b505050506040513d601f19601f820116820180604052508101906118e391906147ee565b15156118ed565b60005b905060006118fa83611388565b60001c60601b60601c90506040518060a0016040528084815260200161191f85612116565b8152602001600a6000868152602001908152602001600020548152602001826001600160a01b031681526020018315158152508585815181106119645761196461459f565b6020026020010181905250505050808061197d90614783565b915050611833565b50919050565b6009546000906001600160a01b031633146119e85760405162461bcd60e51b815260206004820152601a60248201527f6e6f7420736c617368207061796d656e7420636f6e747261637400000000000060448201526064016106ec565b6001600160a01b038216611a305760405162461bcd60e51b815260206004820152600f60248201526e696e76616c6964206164647265737360881b60448201526064016106ec565b60088054906000611a4083614783565b90915550506008546000818152600c6020908152604080832080546001600160a01b0319166001600160a01b0388169081179091558352600e9091528120805491611a8a83614783565b91905055506107e683826132b3565b6001600160a01b038216611aea5760405162461bcd60e51b81526020600482015260186024820152771bdc195c985d1bdc881859191c995cdcc81a5cc81b9d5b1b60421b60448201526064016106ec565b336000818152600f602090815260408083206001600160a01b03871680855290835292819020805460ff191686151590811790915590519081529192917f17307eab39ab6107e8899845ad3d59bd9653f200f220920489ca2b5937696c31910160405180910390a35050565b60008082118015611b6957506008548211155b611b855760405162461bcd60e51b81526004016106ec90614423565b506000908152600a602052604090205490565b611ba06131c7565b600980546001600160a01b0319166001600160a01b0392909216919091179055565b611bcc3383612fb5565b611be85760405162461bcd60e51b81526004016106ec906146c0565b611bf48484848461344c565b50505050565b611c0684848484612d71565b6001600160a01b038416331480611c88575060405163e985e9c560e01b81526001600160a01b03858116600483015233602483015283169063e985e9c590604401602060405180830381865afa158015611c64573d6000803e3d6000fd5b505050506040513d601f19601f82011682018060405250810190611c889190614807565b80611d04575060405163020604bf60e21b81526004810182905233906001600160a01b0384169063081812fc90602401602060405180830381865afa158015611cd5573d6000803e3d6000fd5b505050506040513d601f19601f82011682018060405250810190611cf99190614661565b6001600160a01b0316145b611d495760405162461bcd60e51b815260206004820152601660248201527531b0b73737ba1033b2ba1031b434b632103a37b5b2b760511b60448201526064016106ec565b6040516323b872dd60e01b81526001600160a01b038581166004830152306024830152604482018390528316906323b872dd90606401600060405180830381600087803b158015611d9957600080fd5b505af1158015611dad573d6000803e3d6000fd5b5050505050505050565b6000611dc16131c7565b6001600160a01b038416611e095760405162461bcd60e51b815260206004820152600f60248201526e696e76616c6964206164647265737360881b60448201526064016106ec565b60088054906000611e1983614783565b90915550506008546000818152600c6020908152604080832080546001600160a01b0319166001600160a01b038a169081179091558352600e9091528120805491611e6383614783565b90915550506000818152600a60205260409020839055611e8385826132b3565b611e8d818561347f565b949350505050565b6001600160a01b038216600090815260146020908152604080832084845290915290205480151580611ef0575060008181526013602090815260408083206001600160a01b0387168452825280832085845290915290205415155b611f0c5760405162461bcd60e51b81526004016106ec90614480565b848114611f5b5760405162461bcd60e51b815260206004820152601f60248201527f6f776e657220646f6573206e6f74206d6174636820746f2066726f6d2069640060448201526064016106ec565b6001600160a01b038416611f815760405162461bcd60e51b81526004016106ec906144b7565b6000611f8c82611388565b6001600160a01b0316905033811480611fc857506001600160a01b0381166000908152600f6020908152604080832033845290915290205460ff165b80611ff757506001600160a01b038181166000908152600d602090815260408083208684529091529020541633145b6120135760405162461bcd60e51b81526004016106ec906144ee565b61201e828585612a1a565b6040805130602482015260448082018690528251808303909101815260649091019091526020810180516001600160e01b031663095ea7b360e01b178152815160009183919083895af1506040516323b872dd60e01b81523060048201526001600160a01b038781166024830152604482018690528616906323b872dd90606401600060405180830381600087803b1580156120b957600080fd5b505af11580156120cd573d6000803e3d6000fd5b50505050846001600160a01b0316866001600160a01b031684600080516020614a8f8339815191528760405161210591815260200190565b60405180910390a450505050505050565b60606107e682613512565b60008111801561213357506008548111155b61214f5760405162461bcd60e51b81526004016106ec90614423565b6001600160a01b03821661219d5760405162461bcd60e51b815260206004820152601560248201527419da5d995b881859191c995cdcc81a5cc81b9d5b1b605a1b60448201526064016106ec565b6000818152600c60205260409020546001600160a01b0316331480156121d35750336121c882611388565b6001600160a01b0316145b61220d5760405162461bcd60e51b815260206004820152600b60248201526a1b9bdd08185b1b1bddd95960aa1b60448201526064016106ec565b6000818152600b60205260409020546001600160a01b038381169116146122465760405162461bcd60e51b81526004016106ec90614824565b816001600160a01b031663104debba6040518163ffffffff1660e01b8152600401602060405180830381865afa158015612284573d6000803e3d6000fd5b505050506040513d601f19601f820116820180604052508101906122a891906147ee565b156122e65760405162461bcd60e51b815260206004820152600e60248201526d185b1c9958591e481bdc195b995960921b60448201526064016106ec565b60405163197f86c360e11b8152600481018290526001600160a01b038316906332ff0d8690602401600060405180830381600087803b15801561232857600080fd5b505af115801561233c573d6000803e3d6000fd5b5050505061234a8282610af2565b5050565b60008311801561236057506008548311155b61237c5760405162461bcd60e51b81526004016106ec90614423565b6000838152600c60205260409020546001600160a01b0316331480156123b25750336123a784611388565b6001600160a01b0316145b6123f35760405162461bcd60e51b815260206004820152601260248201527130b63637bbb2b21037b7363c9037bbb732b960711b60448201526064016106ec565b6000838152600a60205260409020819055611142838361347f565b60008111801561242057506008548111155b61243c5760405162461bcd60e51b81526004016106ec90614423565b6001600160a01b03821661248a5760405162461bcd60e51b815260206004820152601560248201527419da5d995b881859191c995cdcc81a5cc81b9d5b1b605a1b60448201526064016106ec565b6000818152600c60205260409020546001600160a01b0316331480156124c05750336124b582611388565b6001600160a01b0316145b6124fa5760405162461bcd60e51b815260206004820152600b60248201526a1b9bdd08185b1b1bddd95960aa1b60448201526064016106ec565b6000818152600b60205260409020546001600160a01b038381169116146125335760405162461bcd60e51b81526004016106ec90614824565b816001600160a01b031663104debba6040518163ffffffff1660e01b8152600401602060405180830381865afa158015612571573d6000803e3d6000fd5b505050506040513d601f19601f8201168201806040525081019061259591906147ee565b6000036125d55760405162461bcd60e51b815260206004820152600e60248201526d185b1c9958591e4818db1bdcd95960921b60448201526064016106ec565b60405163197f86c360e11b8152600060048201526001600160a01b038316906332ff0d8690602401600060405180830381600087803b15801561261757600080fd5b505af115801561262b573d6000803e3d6000fd5b5050505061234a600082610af2565b60006001600160a01b03831661268a5760405162461bcd60e51b81526020600482015260156024820152741bdddb995c881859191c995cdcc81a5cc81b9d5b1b605a1b60448201526064016106ec565b6001600160a01b0382166126db5760405162461bcd60e51b81526020600482015260186024820152771bdc195c985d1bdc881859191c995cdcc81a5cc81b9d5b1b60421b60448201526064016106ec565b506001600160a01b039182166000908152600f6020908152604080832093909416825291909152205460ff1690565b6001600160a01b038216600090815260146020908152604080832084845290915281205480151580612765575060008181526013602090815260408083206001600160a01b0388168452825280832086845290915290205415155b6127815760405162461bcd60e51b81526004016106ec90614480565b6000818152600c60205260409020546001600160a01b031691505b9250929050565b6000806001600160a01b038416156127c8576127bf848461270a565b935090506127e2565b506000828152600c60205260409020546001600160a01b03165b306001600160a01b038216036127fc576127bf818461270a565b604080513060248201526044808201869052825180830390910181526064909101909152602080820180516001600160e01b03166376c0e6ed60e11b17815282516000939291839190865afa9150811561285557805193505b6001821515148015612871575060e084901c63cd740db560e01b145b1561287e575050506107e6565b50506001600160a01b031690506107e6565b6000816128af5760405162461bcd60e51b81526004016106ec906145b5565b60843560208310156128d4576128c6836008614637565b6128d29061010061464e565b1c5b6128e086823388612d71565b6040516331a9108f60e11b8152600481018690526000903390636352211e90602401602060405180830381865afa15801561291f573d6000803e3d6000fd5b505050506040513d601f19601f820116820180604052508101906129439190614661565b6001600160a01b0316036129925760405162461bcd60e51b815260206004820152601660248201527521b434b632103a37b5b2b7103737ba1037bbb732b21760511b60448201526064016106ec565b5063785cf2dd60e11b95945050505050565b6129ac6131c7565b6001600160a01b038116612a115760405162461bcd60e51b815260206004820152602660248201527f4f776e61626c653a206e6577206f776e657220697320746865207a65726f206160448201526564647265737360d01b60648201526084016106ec565b61138581613261565b60008381526013602090815260408083206001600160a01b0386168452825280832084845290915281205490819003612a955760405162461bcd60e51b815260206004820152601f60248201527f4368696c6420746f6b656e206e6f74206f776e656420627920746f6b656e2e0060448201526064016106ec565b60008481526012602090815260408083206001600160a01b0387168452909152812054612ac49060019061464e565b60008681526012602090815260408083206001600160a01b038916845290915281208054929350909183908110612afd57612afd61459f565b90600052602060002001549050808403612b895760008681526012602090815260408083206001600160a01b038916845290915290208190612b4060018661464e565b81548110612b5057612b5061459f565b60009182526020808320909101929092558781526013825260408082206001600160a01b03891683528352808220848352909252208390555b60008681526012602090815260408083206001600160a01b038916845290915290208054612bb99060019061464e565b81548110612bc957612bc961459f565b600091825260208083209091018290558782526013815260408083206001600160a01b03891680855290835281842088855283528184208490558352601482528083208784529091528120819055829003612d6957600086815260106020526040812054612c399060019061464e565b60008881526010602052604081208054929350909183908110612c5e57612c5e61459f565b6000918252602090912001546001600160a01b03908116915087168114612d015760008881526011602090815260408083206001600160a01b038b1684528252808320548b84526010909252909120805483919083908110612cc257612cc261459f565b600091825260208083209190910180546001600160a01b0319166001600160a01b039485161790558b8252601181526040808320938616835292905220555b60008881526010602052604090208054612d1d9060019061464e565b81548110612d2d57612d2d61459f565b6000918252602080832090910180546001600160a01b03191690558982526011815260408083206001600160a01b038b16845290915281205550505b505050505050565b6000838152600c60205260409020546001600160a01b0316612dd55760405162461bcd60e51b815260206004820152601860248201527f5f746f6b656e496420646f6573206e6f742065786973742e000000000000000060448201526064016106ec565b60008381526013602090815260408083206001600160a01b0386168452825280832084845290915290205415612e75576040805162461bcd60e51b81526020600482015260248101919091527f43616e6e6f742072656365697665206368696c6420746f6b656e20626563617560448201527f73652069742068617320616c7265616479206265656e2072656365697665642e60648201526084016106ec565b60008381526012602090815260408083206001600160a01b038616845290915281205490819003612ef05760008481526010602081815260408084208054601184528286206001600160a01b038a16808852908552928620819055938352600184018155845292200180546001600160a01b03191690911790555b60008481526012602090815260408083206001600160a01b0387168452825282208054600181810183559184529190922001839055612f309082906147db565b60008581526013602090815260408083206001600160a01b03888116808652918452828520888652845282852095909555808452601483528184208785528352928190208890555185815291928792908916917f0371ddf2288ad1ba92626a7e31c86a9d006e592cfe57d7d946ef08b13457c08b910160405180910390a45050505050565b600080612fc18361361a565b9050806001600160a01b0316846001600160a01b03161480612fe85750612fe8818561263a565b80611e8d5750836001600160a01b03166130018461087e565b6001600160a01b031614949350505050565b826001600160a01b03166130268261361a565b6001600160a01b03161461304c5760405162461bcd60e51b81526004016106ec90614869565b6001600160a01b0382166130ae5760405162461bcd60e51b8152602060048201526024808201527f4552433732313a207472616e7366657220746f20746865207a65726f206164646044820152637265737360e01b60648201526084016106ec565b6130bb838383600161367a565b826001600160a01b03166130ce8261361a565b6001600160a01b0316146130f45760405162461bcd60e51b81526004016106ec90614869565b600081815260046020908152604080832080546001600160a01b03199081169091556001600160a01b0387811680865260038552838620805460001901905590871680865283862080546001019055868652600290945282852080549092168417909155905184937fddf252ad1be2c89b69c2b068fc378daa952ba7f163c4a11628f55a4df523b3ef91a4505050565b611385816040516024016131989190613c17565b60408051601f198184030181529190526020810180516001600160e01b031663104c13eb60e21b179052613702565b6007546001600160a01b0316331461155b5760405162461bcd60e51b815260206004820181905260248201527f4f776e61626c653a2063616c6c6572206973206e6f7420746865206f776e657260448201526064016106ec565b61322a81613723565b600081815260066020526040902080546132439061444c565b15905061138557600081815260066020526040812061138591613b01565b600780546001600160a01b038381166001600160a01b0319831681179093556040519116919082907f8be0079c531659141344cd1fd0a4f28419497f9722a3daafe3b4186f6b6457e090600090a35050565b6001600160a01b0382166133095760405162461bcd60e51b815260206004820181905260248201527f4552433732313a206d696e7420746f20746865207a65726f206164647265737360448201526064016106ec565b6000818152600260205260409020546001600160a01b03161561336e5760405162461bcd60e51b815260206004820152601c60248201527f4552433732313a20746f6b656e20616c7265616479206d696e7465640000000060448201526064016106ec565b61337c60008383600161367a565b6000818152600260205260409020546001600160a01b0316156133e15760405162461bcd60e51b815260206004820152601c60248201527f4552433732313a20746f6b656e20616c7265616479206d696e7465640000000060448201526064016106ec565b6001600160a01b038216600081815260036020908152604080832080546001019055848352600290915280822080546001600160a01b0319168417905551839291907fddf252ad1be2c89b69c2b068fc378daa952ba7f163c4a11628f55a4df523b3ef908290a45050565b613457848484613013565b613463848484846137c6565b611bf45760405162461bcd60e51b81526004016106ec906148ae565b6000828152600260205260409020546001600160a01b03166134fa5760405162461bcd60e51b815260206004820152602e60248201527f45524337323155524953746f726167653a2055524920736574206f66206e6f6e60448201526d32bc34b9ba32b73a103a37b5b2b760911b60648201526084016106ec565b60008281526006602052604090206111428282614946565b606061351d826138c4565b600082815260066020526040812080546135369061444c565b80601f01602080910402602001604051908101604052809291908181526020018280546135629061444c565b80156135af5780601f10613584576101008083540402835291602001916135af565b820191906000526020600020905b81548152906001019060200180831161359257829003601f168201915b5050505050905060006135cd60408051602081019091526000815290565b905080516000036135df575092915050565b8151156136115780826040516020016135f9929190614a05565b60405160208183030381529060405292505050919050565b611e8d84613923565b6000818152600260205260408120546001600160a01b0316806107e65760405162461bcd60e51b8152602060048201526018602482015277115490cdcc8c4e881a5b9d985b1a59081d1bdad95b88125160421b60448201526064016106ec565b6001811115611bf4576001600160a01b038416156136c0576001600160a01b038416600090815260036020526040812080548392906136ba90849061464e565b90915550505b6001600160a01b03831615611bf4576001600160a01b038316600090815260036020526040812080548392906136f79084906147db565b909155505050505050565b80516a636f6e736f6c652e6c6f67602083016000808483855afa5050505050565b600061372e8261361a565b905061373e81600084600161367a565b6137478261361a565b600083815260046020908152604080832080546001600160a01b03199081169091556001600160a01b0385168085526003845282852080546000190190558785526002909352818420805490911690555192935084927fddf252ad1be2c89b69c2b068fc378daa952ba7f163c4a11628f55a4df523b3ef908390a45050565b60006001600160a01b0384163b156138bc57604051630a85bd0160e11b81526001600160a01b0385169063150b7a029061380a903390899088908890600401614a34565b6020604051808303816000875af1925050508015613845575060408051601f3d908101601f1916820190925261384291810190614a71565b60015b6138a2573d808015613873576040519150601f19603f3d011682016040523d82523d6000602084013e613878565b606091505b50805160000361389a5760405162461bcd60e51b81526004016106ec906148ae565b805181602001fd5b6001600160e01b031916630a85bd0160e11b149050611e8d565b506001611e8d565b6000818152600260205260409020546001600160a01b03166113855760405162461bcd60e51b8152602060048201526018602482015277115490cdcc8c4e881a5b9d985b1a59081d1bdad95b88125160421b60448201526064016106ec565b606061392e826138c4565b600061394560408051602081019091526000815290565b905060008151116139655760405180602001604052806000815250613990565b8061396f84613997565b604051602001613980929190614a05565b6040516020818303038152906040525b9392505050565b606060006139a483613a29565b60010190506000816001600160401b038111156139c3576139c3613e79565b6040519080825280601f01601f1916602001820160405280156139ed576020820181803683370190505b5090508181016020015b600019016f181899199a1a9b1b9c1cb0b131b232b360811b600a86061a8153600a85049450846139f757509392505050565b60008072184f03e93ff9f4daa797ed6e38ed64bf6a1f0160401b8310613a685772184f03e93ff9f4daa797ed6e38ed64bf6a1f0160401b830492506040015b6d04ee2d6d415b85acef81000000008310613a94576d04ee2d6d415b85acef8100000000830492506020015b662386f26fc100008310613ab257662386f26fc10000830492506010015b6305f5e1008310613aca576305f5e100830492506008015b6127108310613ade57612710830492506004015b60648310613af0576064830492506002015b600a83106107e65760010192915050565b508054613b0d9061444c565b6000825580601f10613b1d575050565b601f01602090049060005260206000209081019061138591905b80821115613b4b5760008155600101613b37565b5090565b6001600160a01b038116811461138557600080fd5b60008060408385031215613b7757600080fd5b823591506020830135613b8981613b4f565b809150509250929050565b6001600160e01b03198116811461138557600080fd5b600060208284031215613bbc57600080fd5b813561399081613b94565b60005b83811015613be2578181015183820152602001613bca565b50506000910152565b60008151808452613c03816020860160208601613bc7565b601f01601f19169290920160200192915050565b6020815260006139906020830184613beb565b600060208284031215613c3c57600080fd5b5035919050565b60008083601f840112613c5557600080fd5b5081356001600160401b03811115613c6c57600080fd5b60208301915083602082850101111561279c57600080fd5b600080600080600080600060c0888a031215613c9f57600080fd5b873596506020880135613cb181613b4f565b9550604088013594506060880135613cc881613b4f565b93506080880135925060a08801356001600160401b03811115613cea57600080fd5b613cf68a828b01613c43565b989b979a50959850939692959293505050565b60008060408385031215613d1c57600080fd5b8235613d2781613b4f565b946020939093013593505050565b60008060408385031215613d4857600080fd5b50508035926020909101359150565b600080600080600060808688031215613d6f57600080fd5b8535613d7a81613b4f565b94506020860135613d8a81613b4f565b93506040860135925060608601356001600160401b03811115613dac57600080fd5b613db888828901613c43565b969995985093965092949392505050565b600080600060608486031215613dde57600080fd5b833592506020840135613df081613b4f565b929592945050506040919091013590565b60008060008060808587031215613e1757600080fd5b843593506020850135613e2981613b4f565b92506040850135613e3981613b4f565b9396929550929360600135925050565b600080600060608486031215613e5e57600080fd5b8335613e6981613b4f565b92506020840135613df081613b4f565b634e487b7160e01b600052604160045260246000fd5b604051601f8201601f191681016001600160401b0381118282101715613eb757613eb7613e79565b604052919050565b60008060408385031215613ed257600080fd5b8235613edd81613b4f565b91506020838101356001600160401b0380821115613efa57600080fd5b818601915086601f830112613f0e57600080fd5b813581811115613f2057613f20613e79565b8060051b9150613f31848301613e8f565b8181529183018401918481019089841115613f4b57600080fd5b938501935b83851015613f6957843582529385019390850190613f50565b8096505050505050509250929050565b6000602080830181845280855180835260408601915060408160051b870101925083870160005b82811015613fce57603f19888603018452613fbc858351613beb565b94509285019290850190600101613fa0565b5092979650505050505050565b6020808252825182820181905260009190848201906040850190845b8181101561401357835183529284019291840191600101613ff7565b50909695505050505050565b6020808252825182820181905260009190848201906040850190845b818110156140135783516001600160a01b03168352928401929184019160010161403b565b60006020828403121561407257600080fd5b813561399081613b4f565b60008060008060008060a0878903121561409657600080fd5b8635955060208701356140a881613b4f565b945060408701356140b881613b4f565b93506060870135925060808701356001600160401b038111156140da57600080fd5b6140e689828a01613c43565b979a9699509497509295939492505050565b60006020808301818452808551808352604092508286019150828160051b87010184880160005b8381101561418a57603f19898403018552815160a08151855288820151818a87015261414d82870182613beb565b838a0151878b01526060808501516001600160a01b031690880152608093840151151593909601929092525050938601939086019060010161411f565b509098975050505050505050565b801515811461138557600080fd5b600080604083850312156141b957600080fd5b82356141c481613b4f565b91506020830135613b8981614198565b60006001600160401b038211156141ed576141ed613e79565b50601f01601f191660200190565b600061420e614209846141d4565b613e8f565b905082815283838301111561422257600080fd5b828260208301376000602084830101529392505050565b6000806000806080858703121561424f57600080fd5b843561425a81613b4f565b9350602085013561426a81613b4f565b92506040850135915060608501356001600160401b0381111561428c57600080fd5b8501601f8101871361429d57600080fd5b6142ac878235602084016141fb565b91505092959194509250565b600080600080608085870312156142ce57600080fd5b84356142d981613b4f565b9350602085013592506040850135613e3981613b4f565b600082601f83011261430157600080fd5b613990838335602085016141fb565b60008060006060848603121561432557600080fd5b833561433081613b4f565b925060208401356001600160401b0381111561434b57600080fd5b614357868287016142f0565b925050604084013590509250925092565b60008060006060848603121561437d57600080fd5b8335925060208401356001600160401b0381111561434b57600080fd5b600080604083850312156143ad57600080fd5b82356143b881613b4f565b91506020830135613b8981613b4f565b600080600080606085870312156143de57600080fd5b84356143e981613b4f565b93506020850135925060408501356001600160401b0381111561440b57600080fd5b61441787828801613c43565b95989497509550505050565b6020808252600f908201526e1a5b9d985b1a59081d1bdad95b9259608a1b604082015260600190565b600181811c9082168061446057607f821691505b60208210810361198557634e487b7160e01b600052602260045260246000fd5b6020808252601e908201527f74686520676976656e20746f6b656e20646f6573206e6f742065786973740000604082015260600190565b6020808252601f908201527f63616e6e6f74207472616e7366657220746f206e756c6c206164647265737300604082015260600190565b60208082526021908201527f646f206e6f7420686176652074686520726967687420746f207472616e7366656040820152603960f91b606082015260800190565b81835281816020850137506000828201602090810191909152601f909101601f19169091010190565b6001600160a01b03878116825286166020820152604081018590526060810184905260a060808201819052600090614593908301848661452f565b98975050505050505050565b634e487b7160e01b600052603260045260246000fd5b60208082526046908201527f5f64617461206d75737420636f6e7461696e207468652075696e74323536207460408201527f6f6b656e496420746f207472616e7366657220746865206368696c6420746f6b60608201526532b7103a379760d11b608082015260a00190565b634e487b7160e01b600052601160045260246000fd5b80820281158282048414176107e6576107e6614621565b818103818111156107e6576107e6614621565b60006020828403121561467357600080fd5b815161399081613b4f565b60208082526022908201527f646f206e6f7420686176652074686520726967687420746f207472616e736665604082015261039160f51b606082015260800190565b6020808252602d908201527f4552433732313a2063616c6c6572206973206e6f7420746f6b656e206f776e6560408201526c1c881bdc88185c1c1c9bdd9959609a1b606082015260800190565b60006020828403121561471f57600080fd5b81516001600160401b0381111561473557600080fd5b8201601f8101841361474657600080fd5b8051614754614209826141d4565b81815285602083850101111561476957600080fd5b61477a826020830160208601613bc7565b95945050505050565b60006001820161479557614795614621565b5060010190565b6001600160a01b03868116825285166020820152604081018490526080606082018190526000906147d0908301848661452f565b979650505050505050565b808201808211156107e6576107e6614621565b60006020828403121561480057600080fd5b5051919050565b60006020828403121561481957600080fd5b815161399081614198565b60208082526025908201527f68617665206e6f742072656769737465726564207061796d656e7420657874656040820152643739b4b7b760d91b606082015260800190565b60208082526025908201527f4552433732313a207472616e736665722066726f6d20696e636f72726563742060408201526437bbb732b960d91b606082015260800190565b60208082526032908201527f4552433732313a207472616e7366657220746f206e6f6e20455243373231526560408201527131b2b4bb32b91034b6b83632b6b2b73a32b960711b606082015260800190565b601f82111561114257600081815260208120601f850160051c810160208610156149275750805b601f850160051c820191505b81811015612d6957828155600101614933565b81516001600160401b0381111561495f5761495f613e79565b6149738161496d845461444c565b84614900565b602080601f8311600181146149a857600084156149905750858301515b600019600386901b1c1916600185901b178555612d69565b600085815260208120601f198616915b828110156149d7578886015182559484019460019091019084016149b8565b50858210156149f55787850151600019600388901b60f8161c191681555b5050505050600190811b01905550565b60008351614a17818460208801613bc7565b835190830190614a2b818360208801613bc7565b01949350505050565b6001600160a01b0385811682528416602082015260408101839052608060608201819052600090614a6790830184613beb565b9695505050505050565b600060208284031215614a8357600080fd5b815161399081613b9456fe0ef52e516fb5aec15a5d3587e5480481b702b26db93c8430eca78b61990fd3f6a2646970667358221220ec525b140ba6d82d99e181ac1ebf964aacab5c66b4f6352d6727a9e0f374813864736f6c63430008120033",
  "linkReferences": {},
  "deployedLinkReferences": {}
}