{
  "_format": "hh-sol-artifact-1",
  "contractName": "TestNFT",
  "sourceName": "contracts/TestNFT.sol",
  "abi": [
    {
      "inputs": [],
      "stateMutability": "nonpayable",
      "type": "constructor"
    },
    {
      "anonymous": false,
      "inputs": [
        {
          "indexed": true,
          "internalType": "address",
          "name": "owner",
          "type": "address"
        },
        {
          "indexed": true,
          "internalType": "address",
          "name": "approved",
          "type": "address"
        },
        {
          "indexed": true,
          "internalType": "uint256",
          "name": "tokenId",
          "type": "uint256"
        }
      ],
      "name": "Approval",
      "type": "event"
    },
    {
      "anonymous": false,
      "inputs": [
        {
          "indexed": true,
          "internalType": "address",
          "name": "owner",
          "type": "address"
        },
        {
          "indexed": true,
          "internalType": "address",
          "name": "operator",
          "type": "address"
        },
        {
          "indexed": false,
          "internalType": "bool",
          "name": "approved",
          "type": "bool"
        }
      ],
      "name": "ApprovalForAll",
      "type": "event"
    },
    {
      "anonymous": false,
      "inputs": [
        {
          "indexed": true,
          "internalType": "address",
          "name": "previousOwner",
          "type": "address"
        },
        {
          "indexed": true,
          "internalType": "address",
          "name": "newOwner",
          "type": "address"
        }
      ],
      "name": "OwnershipTransferred",
      "type": "event"
    },
    {
      "anonymous": false,
      "inputs": [
        {
          "indexed": true,
          "internalType": "address",
          "name": "from",
          "type": "address"
        },
        {
          "indexed": true,
          "internalType": "address",
          "name": "to",
          "type": "address"
        },
        {
          "indexed": true,
          "internalType": "uint256",
          "name": "tokenId",
          "type": "uint256"
        }
      ],
      "name": "Transfer",
      "type": "event"
    },
    {
      "inputs": [
        {
          "internalType": "address",
          "name": "to",
          "type": "address"
        },
        {
          "internalType": "uint256",
          "name": "tokenId",
          "type": "uint256"
        }
      ],
      "name": "approve",
      "outputs": [],
      "stateMutability": "nonpayable",
      "type": "function"
    },
    {
      "inputs": [
        {
          "internalType": "address",
          "name": "owner",
          "type": "address"
        }
      ],
      "name": "balanceOf",
      "outputs": [
        {
          "internalType": "uint256",
          "name": "",
          "type": "uint256"
        }
      ],
      "stateMutability": "view",
      "type": "function"
    },
    {
      "inputs": [
        {
          "internalType": "uint256",
          "name": "tokenId",
          "type": "uint256"
        }
      ],
      "name": "getApproved",
      "outputs": [
        {
          "internalType": "address",
          "name": "",
          "type": "address"
        }
      ],
      "stateMutability": "view",
      "type": "function"
    },
    {
      "inputs": [
        {
          "internalType": "address",
          "name": "owner",
          "type": "address"
        },
        {
          "internalType": "address",
          "name": "operator",
          "type": "address"
        }
      ],
      "name": "isApprovedForAll",
      "outputs": [
        {
          "internalType": "bool",
          "name": "",
          "type": "bool"
        }
      ],
      "stateMutability": "view",
      "type": "function"
    },
    {
      "inputs": [],
      "name": "name",
      "outputs": [
        {
          "internalType": "string",
          "name": "",
          "type": "string"
        }
      ],
      "stateMutability": "view",
      "type": "function"
    },
    {
      "inputs": [],
      "name": "owner",
      "outputs": [
        {
          "internalType": "address",
          "name": "",
          "type": "address"
        }
      ],
      "stateMutability": "view",
      "type": "function"
    },
    {
      "inputs": [
        {
          "internalType": "uint256",
          "name": "tokenId",
          "type": "uint256"
        }
      ],
      "name": "ownerOf",
      "outputs": [
        {
          "internalType": "address",
          "name": "",
          "type": "address"
        }
      ],
      "stateMutability": "view",
      "type": "function"
    },
    {
      "inputs": [],
      "name": "renounceOwnership",
      "outputs": [],
      "stateMutability": "nonpayable",
      "type": "function"
    },
    {
      "inputs": [
        {
          "internalType": "address",
          "name": "to",
          "type": "address"
        },
        {
          "internalType": "string",
          "name": "_uri",
          "type": "string"
        }
      ],
      "name": "safeMint",
      "outputs": [],
      "stateMutability": "nonpayable",
      "type": "function"
    },
    {
      "inputs": [
        {
          "internalType": "address",
          "name": "from",
          "type": "address"
        },
        {
          "internalType": "address",
          "name": "to",
          "type": "address"
        },
        {
          "internalType": "uint256",
          "name": "tokenId",
          "type": "uint256"
        }
      ],
      "name": "safeTransferFrom",
      "outputs": [],
      "stateMutability": "nonpayable",
      "type": "function"
    },
    {
      "inputs": [
        {
          "internalType": "address",
          "name": "_from",
          "type": "address"
        },
        {
          "internalType": "address",
          "name": "_to",
          "type": "address"
        },
        {
          "internalType": "uint256",
          "name": "_tokenId",
          "type": "uint256"
        },
        {
          "internalType": "bytes",
          "name": "_data",
          "type": "bytes"
        }
      ],
      "name": "safeTransferFrom",
      "outputs": [],
      "stateMutability": "nonpayable",
      "type": "function"
    },
    {
      "inputs": [
        {
          "internalType": "address",
          "name": "operator",
          "type": "address"
        },
        {
          "internalType": "bool",
          "name": "approved",
          "type": "bool"
        }
      ],
      "name": "setApprovalForAll",
      "outputs": [],
      "stateMutability": "nonpayable",
      "type": "function"
    },
    {
      "inputs": [
        {
          "internalType": "bytes4",
          "name": "interfaceId",
          "type": "bytes4"
        }
      ],
      "name": "supportsInterface",
      "outputs": [
        {
          "internalType": "bool",
          "name": "",
          "type": "bool"
        }
      ],
      "stateMutability": "view",
      "type": "function"
    },
    {
      "inputs": [],
      "name": "symbol",
      "outputs": [
        {
          "internalType": "string",
          "name": "",
          "type": "string"
        }
      ],
      "stateMutability": "view",
      "type": "function"
    },
    {
      "inputs": [],
      "name": "tokenId",
      "outputs": [
        {
          "internalType": "uint256",
          "name": "",
          "type": "uint256"
        }
      ],
      "stateMutability": "view",
      "type": "function"
    },
    {
      "inputs": [
        {
          "internalType": "uint256",
          "name": "_tokenId",
          "type": "uint256"
        }
      ],
      "name": "tokenURI",
      "outputs": [
        {
          "internalType": "string",
          "name": "",
          "type": "string"
        }
      ],
      "stateMutability": "view",
      "type": "function"
    },
    {
      "inputs": [
        {
          "internalType": "address",
          "name": "from",
          "type": "address"
        },
        {
          "internalType": "address",
          "name": "to",
          "type": "address"
        },
        {
          "internalType": "uint256",
          "name": "tokenId",
          "type": "uint256"
        }
      ],
      "name": "transferFrom",
      "outputs": [],
      "stateMutability": "nonpayable",
      "type": "function"
    },
    {
      "inputs": [
        {
          "internalType": "address",
          "name": "newOwner",
          "type": "address"
        }
      ],
      "name": "transferOwnership",
      "outputs": [],
      "stateMutability": "nonpayable",
      "type": "function"
    }
  ],
  "bytecode": "0x60806040523480156200001157600080fd5b506040518060400160405280600781526020016615195cdd13919560ca1b815250604051806040016040528060048152602001631513919560e21b81525081600090816200006091906200018d565b5060016200006f82826200018d565b5050506200008c620000866200009260201b60201c565b62000096565b62000259565b3390565b600780546001600160a01b038381166001600160a01b0319831681179093556040519116919082907f8be0079c531659141344cd1fd0a4f28419497f9722a3daafe3b4186f6b6457e090600090a35050565b634e487b7160e01b600052604160045260246000fd5b600181811c908216806200011357607f821691505b6020821081036200013457634e487b7160e01b600052602260045260246000fd5b50919050565b601f8211156200018857600081815260208120601f850160051c81016020861015620001635750805b601f850160051c820191505b8181101562000184578281556001016200016f565b5050505b505050565b81516001600160401b03811115620001a957620001a9620000e8565b620001c181620001ba8454620000fe565b846200013a565b602080601f831160018114620001f95760008415620001e05750858301515b600019600386901b1c1916600185901b17855562000184565b600085815260208120601f198616915b828110156200022a5788860151825594840194600190910190840162000209565b5085821015620002495787850151600019600388901b60f8161c191681555b5050505050600190811b01905550565b6118d980620002696000396000f3fe608060405234801561001057600080fd5b50600436106101165760003560e01c8063715018a6116100a2578063b88d4fde11610071578063b88d4fde1461022f578063c87b56dd14610242578063d204c45e14610255578063e985e9c514610268578063f2fde38b1461027b57600080fd5b8063715018a6146101fb5780638da5cb5b1461020357806395d89b4114610214578063a22cb4651461021c57600080fd5b806317d70f7c116100e957806317d70f7c1461019857806323b872dd146101af57806342842e0e146101c25780636352211e146101d557806370a08231146101e857600080fd5b806301ffc9a71461011b57806306fdde0314610143578063081812fc14610158578063095ea7b314610183575b600080fd5b61012e61012936600461128a565b61028e565b60405190151581526020015b60405180910390f35b61014b6102e0565b60405161013a91906112f7565b61016b61016636600461130a565b610372565b6040516001600160a01b03909116815260200161013a565b61019661019136600461133f565b610399565b005b6101a160085481565b60405190815260200161013a565b6101966101bd366004611369565b6104b3565b6101966101d0366004611369565b6104e4565b61016b6101e336600461130a565b6104ff565b6101a16101f63660046113a5565b61055f565b6101966105e5565b6007546001600160a01b031661016b565b61014b6105f9565b61019661022a3660046113c0565b610608565b61019661023d366004611488565b610617565b61014b61025036600461130a565b610629565b610196610263366004611504565b610634565b61012e610276366004611566565b610668565b6101966102893660046113a5565b610696565b60006001600160e01b031982166380ac58cd60e01b14806102bf57506001600160e01b03198216635b5e139f60e01b145b806102da57506301ffc9a760e01b6001600160e01b03198316145b92915050565b6060600080546102ef90611599565b80601f016020809104026020016040519081016040528092919081815260200182805461031b90611599565b80156103685780601f1061033d57610100808354040283529160200191610368565b820191906000526020600020905b81548152906001019060200180831161034b57829003601f168201915b5050505050905090565b600061037d8261070f565b506000908152600460205260409020546001600160a01b031690565b60006103a4826104ff565b9050806001600160a01b0316836001600160a01b0316036104165760405162461bcd60e51b815260206004820152602160248201527f4552433732313a20617070726f76616c20746f2063757272656e74206f776e656044820152603960f91b60648201526084015b60405180910390fd5b336001600160a01b038216148061043257506104328133610668565b6104a45760405162461bcd60e51b815260206004820152603d60248201527f4552433732313a20617070726f76652063616c6c6572206973206e6f7420746f60448201527f6b656e206f776e6572206f7220617070726f76656420666f7220616c6c000000606482015260840161040d565b6104ae838361076e565b505050565b6104bd33826107dc565b6104d95760405162461bcd60e51b815260040161040d906115d3565b6104ae83838361083b565b6104ae83838360405180602001604052806000815250610617565b6000818152600260205260408120546001600160a01b0316806102da5760405162461bcd60e51b8152602060048201526018602482015277115490cdcc8c4e881a5b9d985b1a59081d1bdad95b88125160421b604482015260640161040d565b60006001600160a01b0382166105c95760405162461bcd60e51b815260206004820152602960248201527f4552433732313a2061646472657373207a65726f206973206e6f7420612076616044820152683634b21037bbb732b960b91b606482015260840161040d565b506001600160a01b031660009081526003602052604090205490565b6105ed6109ac565b6105f76000610a06565b565b6060600180546102ef90611599565b610613338383610a58565b5050565b61062384848484610b26565b50505050565b60606102da82610b58565b61063c6109ac565b6008805490600061064c83611636565b909155505060085461065e8382610c60565b6104ae8183610c7a565b6001600160a01b03918216600090815260056020908152604080832093909416825291909152205460ff1690565b61069e6109ac565b6001600160a01b0381166107035760405162461bcd60e51b815260206004820152602660248201527f4f776e61626c653a206e6577206f776e657220697320746865207a65726f206160448201526564647265737360d01b606482015260840161040d565b61070c81610a06565b50565b6000818152600260205260409020546001600160a01b031661070c5760405162461bcd60e51b8152602060048201526018602482015277115490cdcc8c4e881a5b9d985b1a59081d1bdad95b88125160421b604482015260640161040d565b600081815260046020526040902080546001600160a01b0319166001600160a01b03841690811790915581906107a3826104ff565b6001600160a01b03167f8c5be1e5ebec7d5bd14f71427d1e84f3dd0314c0f7b2291e5b200ac8c7c3b92560405160405180910390a45050565b6000806107e8836104ff565b9050806001600160a01b0316846001600160a01b0316148061080f575061080f8185610668565b806108335750836001600160a01b031661082884610372565b6001600160a01b0316145b949350505050565b826001600160a01b031661084e826104ff565b6001600160a01b0316146108745760405162461bcd60e51b815260040161040d9061164f565b6001600160a01b0382166108d65760405162461bcd60e51b8152602060048201526024808201527f4552433732313a207472616e7366657220746f20746865207a65726f206164646044820152637265737360e01b606482015260840161040d565b6108e38383836001610d0d565b826001600160a01b03166108f6826104ff565b6001600160a01b03161461091c5760405162461bcd60e51b815260040161040d9061164f565b600081815260046020908152604080832080546001600160a01b03199081169091556001600160a01b0387811680865260038552838620805460001901905590871680865283862080546001019055868652600290945282852080549092168417909155905184937fddf252ad1be2c89b69c2b068fc378daa952ba7f163c4a11628f55a4df523b3ef91a4505050565b6007546001600160a01b031633146105f75760405162461bcd60e51b815260206004820181905260248201527f4f776e61626c653a2063616c6c6572206973206e6f7420746865206f776e6572604482015260640161040d565b600780546001600160a01b038381166001600160a01b0319831681179093556040519116919082907f8be0079c531659141344cd1fd0a4f28419497f9722a3daafe3b4186f6b6457e090600090a35050565b816001600160a01b0316836001600160a01b031603610ab95760405162461bcd60e51b815260206004820152601960248201527f4552433732313a20617070726f766520746f2063616c6c657200000000000000604482015260640161040d565b6001600160a01b03838116600081815260056020908152604080832094871680845294825291829020805460ff191686151590811790915591519182527f17307eab39ab6107e8899845ad3d59bd9653f200f220920489ca2b5937696c31910160405180910390a3505050565b610b3033836107dc565b610b4c5760405162461bcd60e51b815260040161040d906115d3565b61062384848484610d95565b6060610b638261070f565b60008281526006602052604081208054610b7c90611599565b80601f0160208091040260200160405190810160405280929190818152602001828054610ba890611599565b8015610bf55780601f10610bca57610100808354040283529160200191610bf5565b820191906000526020600020905b815481529060010190602001808311610bd857829003601f168201915b505050505090506000610c1360408051602081019091526000815290565b90508051600003610c25575092915050565b815115610c57578082604051602001610c3f929190611694565b60405160208183030381529060405292505050919050565b61083384610dc8565b610613828260405180602001604052806000815250610e3c565b6000828152600260205260409020546001600160a01b0316610cf55760405162461bcd60e51b815260206004820152602e60248201527f45524337323155524953746f726167653a2055524920736574206f66206e6f6e60448201526d32bc34b9ba32b73a103a37b5b2b760911b606482015260840161040d565b60008281526006602052604090206104ae8282611711565b6001811115610623576001600160a01b03841615610d53576001600160a01b03841660009081526003602052604081208054839290610d4d9084906117d1565b90915550505b6001600160a01b03831615610623576001600160a01b03831660009081526003602052604081208054839290610d8a9084906117e4565b909155505050505050565b610da084848461083b565b610dac84848484610e6f565b6106235760405162461bcd60e51b815260040161040d906117f7565b6060610dd38261070f565b6000610dea60408051602081019091526000815290565b90506000815111610e0a5760405180602001604052806000815250610e35565b80610e1484610f70565b604051602001610e25929190611694565b6040516020818303038152906040525b9392505050565b610e468383611003565b610e536000848484610e6f565b6104ae5760405162461bcd60e51b815260040161040d906117f7565b60006001600160a01b0384163b15610f6557604051630a85bd0160e11b81526001600160a01b0385169063150b7a0290610eb3903390899088908890600401611849565b6020604051808303816000875af1925050508015610eee575060408051601f3d908101601f19168201909252610eeb91810190611886565b60015b610f4b573d808015610f1c576040519150601f19603f3d011682016040523d82523d6000602084013e610f21565b606091505b508051600003610f435760405162461bcd60e51b815260040161040d906117f7565b805181602001fd5b6001600160e01b031916630a85bd0160e11b149050610833565b506001949350505050565b60606000610f7d8361119c565b600101905060008167ffffffffffffffff811115610f9d57610f9d6113fc565b6040519080825280601f01601f191660200182016040528015610fc7576020820181803683370190505b5090508181016020015b600019016f181899199a1a9b1b9c1cb0b131b232b360811b600a86061a8153600a8504945084610fd157509392505050565b6001600160a01b0382166110595760405162461bcd60e51b815260206004820181905260248201527f4552433732313a206d696e7420746f20746865207a65726f2061646472657373604482015260640161040d565b6000818152600260205260409020546001600160a01b0316156110be5760405162461bcd60e51b815260206004820152601c60248201527f4552433732313a20746f6b656e20616c7265616479206d696e74656400000000604482015260640161040d565b6110cc600083836001610d0d565b6000818152600260205260409020546001600160a01b0316156111315760405162461bcd60e51b815260206004820152601c60248201527f4552433732313a20746f6b656e20616c7265616479206d696e74656400000000604482015260640161040d565b6001600160a01b038216600081815260036020908152604080832080546001019055848352600290915280822080546001600160a01b0319168417905551839291907fddf252ad1be2c89b69c2b068fc378daa952ba7f163c4a11628f55a4df523b3ef908290a45050565b60008072184f03e93ff9f4daa797ed6e38ed64bf6a1f0160401b83106111db5772184f03e93ff9f4daa797ed6e38ed64bf6a1f0160401b830492506040015b6d04ee2d6d415b85acef81000000008310611207576d04ee2d6d415b85acef8100000000830492506020015b662386f26fc10000831061122557662386f26fc10000830492506010015b6305f5e100831061123d576305f5e100830492506008015b612710831061125157612710830492506004015b60648310611263576064830492506002015b600a83106102da5760010192915050565b6001600160e01b03198116811461070c57600080fd5b60006020828403121561129c57600080fd5b8135610e3581611274565b60005b838110156112c25781810151838201526020016112aa565b50506000910152565b600081518084526112e38160208601602086016112a7565b601f01601f19169290920160200192915050565b602081526000610e3560208301846112cb565b60006020828403121561131c57600080fd5b5035919050565b80356001600160a01b038116811461133a57600080fd5b919050565b6000806040838503121561135257600080fd5b61135b83611323565b946020939093013593505050565b60008060006060848603121561137e57600080fd5b61138784611323565b925061139560208501611323565b9150604084013590509250925092565b6000602082840312156113b757600080fd5b610e3582611323565b600080604083850312156113d357600080fd5b6113dc83611323565b9150602083013580151581146113f157600080fd5b809150509250929050565b634e487b7160e01b600052604160045260246000fd5b600067ffffffffffffffff8084111561142d5761142d6113fc565b604051601f8501601f19908116603f01168101908282118183101715611455576114556113fc565b8160405280935085815286868601111561146e57600080fd5b858560208301376000602087830101525050509392505050565b6000806000806080858703121561149e57600080fd5b6114a785611323565b93506114b560208601611323565b925060408501359150606085013567ffffffffffffffff8111156114d857600080fd5b8501601f810187136114e957600080fd5b6114f887823560208401611412565b91505092959194509250565b6000806040838503121561151757600080fd5b61152083611323565b9150602083013567ffffffffffffffff81111561153c57600080fd5b8301601f8101851361154d57600080fd5b61155c85823560208401611412565b9150509250929050565b6000806040838503121561157957600080fd5b61158283611323565b915061159060208401611323565b90509250929050565b600181811c908216806115ad57607f821691505b6020821081036115cd57634e487b7160e01b600052602260045260246000fd5b50919050565b6020808252602d908201527f4552433732313a2063616c6c6572206973206e6f7420746f6b656e206f776e6560408201526c1c881bdc88185c1c1c9bdd9959609a1b606082015260800190565b634e487b7160e01b600052601160045260246000fd5b60006001820161164857611648611620565b5060010190565b60208082526025908201527f4552433732313a207472616e736665722066726f6d20696e636f72726563742060408201526437bbb732b960d91b606082015260800190565b600083516116a68184602088016112a7565b8351908301906116ba8183602088016112a7565b01949350505050565b601f8211156104ae57600081815260208120601f850160051c810160208610156116ea5750805b601f850160051c820191505b81811015611709578281556001016116f6565b505050505050565b815167ffffffffffffffff81111561172b5761172b6113fc565b61173f816117398454611599565b846116c3565b602080601f831160018114611774576000841561175c5750858301515b600019600386901b1c1916600185901b178555611709565b600085815260208120601f198616915b828110156117a357888601518255948401946001909101908401611784565b50858210156117c15787850151600019600388901b60f8161c191681555b5050505050600190811b01905550565b818103818111156102da576102da611620565b808201808211156102da576102da611620565b60208082526032908201527f4552433732313a207472616e7366657220746f206e6f6e20455243373231526560408201527131b2b4bb32b91034b6b83632b6b2b73a32b960711b606082015260800190565b6001600160a01b038581168252841660208201526040810183905260806060820181905260009061187c908301846112cb565b9695505050505050565b60006020828403121561189857600080fd5b8151610e358161127456fea264697066735822122068285992f9cb369f7015f9a1d022a78e09c5dfcf17789101bd6ddf96c0a2842764736f6c63430008120033",
  "linkReferences": {},
  "deployedLinkReferences": {}
}